:100000000C946D020C948A020C948A020C948A025D
:100010000C948A020C948A020C948A020C948A0230
:100020000C948A020C948A020C94760F0C94B10FF3
:100030000C948A020C948A020C948A020C948A0210
:100040000C948A020C948A020C948A020C948A0200
:100050000C94990C0C948A020C948A020C94410B17
:100060000C948A020C948A020C948A020C948A02E0
:100070000C948A020C948A020C948A020C948A02D0
:100080000C948A020C948A020C948A020C94BD038C
:100090000C948A020C948A020C948A020C948A02B0
:1000A0000C948A020C948A020C948A020B0F080F9B
:1000B000050F020FFF0EFC0EF90EF60EF30EF00EFA
:1000C000ED0EEA0EE70EE40EE10EDE0EDB0ED80EAC
:1000D000D50ED20ECF0ECC0EC90EC60EC30EC00E5C
:1000E000BD0EBA0EB70EB40EB10EAE0EAB0EA80E0C
:1000F000A50EA20E9F0E9C0E990E960E930E900EBC
:100100008D0E8A0E870E840E810E7E0E7B0E780E6B
:10011000750E720E6F0E6C0E690E660E630E600E1B
:100120005D0E5A0E570E540E510E4E0E4B0E000120
:10013000000062011200020000740143000300008D
:10014000B7010401030904BB011402030904D1012E
:100150001603030904E9010C0001C11201803601F4
:1001600081361201000202000010C0167A0400015C
:100170000102030109024300020100C03209040028
:100180000001020201000524001001052401010103
:10019000042402060524060001070582031000401E
:1001A00009040100020A00000007050302400000E4
:1001B0000705840240000004030904140359006F7A
:1001C000007500720020004E0061006D00650000A7
:1001D00000160355005300420020005300650072D2
:1001E00000690061006C0000000C03310032003334
:1001F000003400350000006E616E00696E6600001C
:100200000000000000005F00000007000700147FEE
:10021000147F14242A7F2A12231308646236495556
:1002200022500005030000001C2241000041221C56
:100230000014083E081408083E080800503000006A
:100240000808080808006060000020100804023E4A
:100250005149453E00427F4000426151494621419B
:10026000454B311814127F1027454545393C4A4902
:10027000493001710905033649494936064949297A
:100280001E003636000000563600000814224100D9
:1002900014141414140041221408020151090632E6
:1002A0004979413E7E1111117E7F494949363E41CF
:1002B0004141227F4141221C7F494949417F09092F
:1002C00009013E4149497A7F0808087F00417F4182
:1002D000002040413F017F081422417F40404040C0
:1002E0007F020C027F7F0408107F3E4141413E7F28
:1002F000090909063E4151215E7F091929464649EF
:1003000049493101017F01013F4040403F1F2040EA
:10031000201F3F4038403F631408146307087008EB
:10032000076151494543007F414100020408102004
:100330000041417F0004020102044040404040006F
:100340000102040020545454787F4844443838440F
:10035000444420384444487F3854545418087E0993
:1003600001020C5252523E7F0804047800447D4042
:10037000002040443D007F1028440000417F4000A1
:100380007C041804787C0804047838444444387C9D
:1003900014141408081414187C7C08040408485425
:1003A000545420043F4440203C4040207C1C2040CA
:1003B000201C3C4030403C44281028440C505050F5
:1003C0003C4464544C44000836410000007F000067
:1003D00000413608001008081008784641467800A9
:1003E000407A10F35A00A0724E18090010A5D4E804
:1003F0000000E87648170000E40B54020000CA9A97
:100400003B000000E1F505000080969800000040E8
:10041000420F000000A0860100000010270000002D
:1004200000E803000000006400000000000A000073
:100430000000000100000000002C76D888DC674F27
:100440000823DFC1DFAE59E1B1B796E5E3E453C657
:100450003AE651997696E8E6C28426EB898C9B624F
:10046000ED407C6FFCEFBC9C9F40F2BAA56FA5F4F9
:1004700090055A2AF75C936B6CF9676DC11BFCE021
:10048000E40D47FEF520E6B500D0ED902E03009474
:100490003577050080841E080000204E0A00000009
:1004A000C80C333333330F986E12831141EF8D2113
:1004B00014893BE65516CFFEE6DB18D1844B381B7A
:1004C000F77C1D901DA4BBE424203284725E22813F
:1004D00000C9F124ECA1E53D270011241FBECFEF98
:1004E000DAE0DEBFCDBF13E0A0E0B1E0E4E4F8E382
:1004F00002C005900D92A03FB107D9F718E0A0EF18
:10050000B3E001C01D92A13FB107E1F70E94E509E8
:100510000C94201C0C94000087E880937A000895C6
:10052000982F9F71906490937C00807280937B00E1
:1005300080917A00806480937A0080917A0086FDB1
:10054000FCCF2091780030917900C90108952F9255
:100550003F924F925F926F927F928F929F92AF9253
:10056000BF92CF92DF92EF92FF920F931F93DF9390
:10057000CF9300D000D0CDB7DEB72B015A8349838B
:100580003901698D7A8D9C012E193F09A2014C1900
:100590005D09FA01EA9DA001EB9D500DFA9D500DF9
:1005A0001124240F351F620F731FAC0189819A81BA
:1005B000840F951F9C838B83640C751C15012E0C76
:1005C0003F1C8C0C9D1C23C04E155F057CF0421512
:1005D000530564F42C153D054CF02815390534F409
:1005E0008C91803219F080818032E9F42F5F3F4F87
:1005F000AA0DBB1D89819A81E80FF91F26153705C1
:100600001CF34F5F5F4F0F5F1F4F6F5F7F4FEB819B
:10061000FC814E175F071CF020E030E006C092011D
:10062000DB01F801EBCF21E030E0C9010F900F9022
:100630000F900F90CF91DF911F910F91FF90EF904E
:10064000DF90CF90BF90AF909F908F907F906F90F2
:100650005F904F903F902F9008952F923F924F922E
:100660005F926F927F928F929F92AF92BF92CF9242
:10067000DF92EF92FF920F931F93DF93CF9300D0FF
:1006800000D000D0CDB7DEB79C838B831E821D8245
:1006900045C08D819E810E94560A9A8389838D81EF
:1006A0009E810E945E0A1C010E94660A2C010E9423
:1006B000660A3C010E94690A8C018B819C810E9420
:1006C000A5057C018B819C810E94B4056C010E9470
:1006D000C3055C010E94C3054C010E94C60500D001
:1006E000EDB7FEB79283818389819A81B101A2011E
:1006F00093010E94A7020F900F90892B49F08D81E2
:100700009E816EEC7FEF0E94710A21E030E010C004
:100710002D813E812F5F3F4F3E832D830E946E0AC5
:10072000ED81FE81E817F9070CF4B3CF20E030E04B
:10073000C90126960FB6F894DEBF0FBECDBFCF918C
:10074000DF911F910F91FF90EF90DF90CF90BF90BE
:10075000AF909F908F907F906F905F904F903F9061
:100760002F9008951092900084E08093910081E092
:10077000809371007894859808951F920F920FB618
:100780000F9211248F939F938091F003880F809391
:10079000F0038091F0038F738093F0039091F00346
:1007A0008FB1829586958170892B8093F00380911B
:1007B000F0038F3321F481E08093F10306C0809130
:1007C000F003882311F41092F1039F918F910F9001
:1007D0000FBE0F901F9018958091F103089580919E
:1007E000F20308958093F20308950F931F9300D0AE
:1007F00000D000D0EDB7FEB7319609E114E0ADB7F7
:10080000BEB712961C930E93119784EF91E09383D9
:10081000828380E091E0958384830E94351B8DB7AD
:100820009EB706960FB6F8949EBF0FBE8DBFC80147
:100830000E94910B1F910F9108958F929F92AF92FA
:10084000BF92CF92DF92EF92FF920F931F930E947D
:10085000220D4C010E94270D5C010E94CB056C010A
:100860000E940F067C010E94D0052DB73EB72A5189
:1008700030400FB6F8943EBF0FBE2DBFEDB7FEB7A8
:10088000319609E114E0ADB7BEB712961C930E93F2
:10089000119724EF31E03383228325E932E0358359
:1008A000248397828682B186A086D386C286F58607
:1008B000E48697878687118A108A138A128A158A96
:1008C000148A178A168A118E108E0E94351B2DB736
:1008D0003EB7265E3F4F0FB6F8943EBF0FBE2DBF0A
:1008E000C8010E94910B1F910F91FF90EF90DF9034
:1008F000CF90BF90AF909F908F9008958F929F92CE
:10090000AF92BF92CF92DF92EF92FF920F931F931D
:10091000CF93DF936C017B014A015901841795073E
:1009200061F4EB0106C0C601BE01A8010E94AB1430
:100930002296AC16BD06BCF70EC06217730759F4B9
:10094000EC0106C0CE01B701A8010E94AB142296AB
:100950008C169D06BCF7DF91CF911F910F91FF90F0
:10096000EF90DF90CF90BF90AF909F908F900895C1
:100970002F923F924F925F926F927F928F929F92AF
:10098000AF92BF92CF92DF92EF92FF920F931F939D
:10099000DF93CF9300D000D0CDB7DEB789839A83A1
:1009A0003A011901270148016B01AA24BB242AC07E
:1009B000F7014081403231F0552747FD5095C8017D
:1009C000B60107C04114510431F4C801B60140E238
:1009D00050E00E94AB148B819C8101969C838B8399
:1009E0000F5F1F4F0894E11CF11CEB81FC81E615A1
:1009F000F705F4F20894A11CB11C860C971C08940E
:100A0000C11CD11CA214B30444F489819A819C01B5
:100A1000890174011C821B82E8CF0F900F900F9008
:100A20000F90CF91DF911F910F91FF90EF90DF908A
:100A3000CF90BF90AF909F908F907F906F905F907E
:100A40004F903F902F900895CF92DF92EF92FF92B8
:100A50000F931F93D82EC62E79018DB79EB7089796
:100A60000FB6F8949EBF0FBE8DBFEDB7FEB731969F
:100A700009E114E0ADB7BEB712961C930E9311971F
:100A800084EF91E0938382838FE193E09583848365
:100A9000578346830E94351B8DB79EB708960FB6C5
:100AA000F8949EBF0FBE8DBF8D2D90E06C2D70E031
:100AB000A80197010E949A161F910F91FF90EF9045
:100AC000DF90CF900895CF92DF92EF92FF920F9335
:100AD0001F93D82EC62E8DB79EB70A970FB6F894DF
:100AE0009EBF0FBE8DBFEDB7FEB7319689E1E82EF0
:100AF00084E0F82EADB7BEB71296FC92EE92119735
:100B000084EF91E09383828382E293E095838483F0
:100B100026833783408751870E94351B8DB79EB748
:100B20000A960FB6F8949EBF0FBE8DBF8D2D90E034
:100B30006C2D70E0A70198010E949A161F910F91E9
:100B4000FF90EF90DF90CF900895FC01EE0FFF1F14
:100B5000EE0FFF1FE35FF94F608171818281938106
:100B60000E941218CB010895FC01EE0FFF1FEE0F3B
:100B7000FF1FE95DFC4F60817181828193810E943A
:100B80001218CB01089587E090E0089580916503E5
:100B9000909166030895809125039091260308950E
:100BA000CF92DF92EF92FF920F931F93CF93DF9339
:100BB00027E2C22E23E0D22EC0E0D0E0F601E08092
:100BC000F18002811381C801B70120E030E040E0EC
:100BD00052E40E94A61788235CF4C801B70120E004
:100BE00030E040EE50EC0E94F51818160CF42196F7
:100BF00084E090E0C80ED91E93E3C91693E0D906AD
:100C0000E9F6C093F303D093F403CE01DF91CF91C3
:100C10001F910F91FF90EF90DF90CF9008958091FA
:100C2000F5039091F603089597FD04C09093260371
:100C3000809325030895CF92DF92EF92FF920F9356
:100C40001F9360910D0670910E0680910F06909192
:100C500010060E9412186B017C01609127037091AD
:100C600028038091290390912A030E9412189B0166
:100C7000AC010091650310916603C601B90147E01C
:100C800050E027E030E0A1E0EA2EF12C0E94B80409
:100C900060911106709112068091130690911406CE
:100CA0000E9412186B017C0160912B0370912C0340
:100CB00080912D0390912E030E9412189B01AC018C
:100CC0000091650310916603C601B90147E050E049
:100CD00027E030E0F1E0EF2EF12C0E94B8046091A3
:100CE00015067091160680911706909118060E94BD
:100CF00012186B017C0160912F0370913003809179
:100D00003103909132030E9412189B01AC010091B3
:100D1000650310916603C601B90147E050E027E082
:100D200030E0E1E0EE2EF12C0E94B8041F910F910B
:100D3000FF90EF90DF90CF9008950F931F938C0159
:100D40000E94BE0C0E941718DC01CB010E94101AF1
:100D50000E940B1A000F111F000F111F035F194F84
:100D60006CE470E00E945C19AA2797FDA095BA2F49
:100D7000BC01CD010E944518F80160837183828314
:100D800093831F910F9108954F925F926F927F927C
:100D90008F929F92AF92BF92CF92DF92EF92FF928B
:100DA0000F931F93CF93DF9307EFC02E03E0D02E56
:100DB000C7E2D3E0AA24BB240F2EF0E06F2EF0E0B0
:100DC0007F2EF0EE8F2EF0EC9F2EF02D11E0412EB5
:100DD000512CF60180819181019719F4C5010E947F
:100DE0009D06E880F9800A811B81C801B70120E0D7
:100DF00030E040E052E40E94A617882384F4F60114
:100E000011821082C801B7012AE939E949E95EE394
:100E10000E944217688379838A839B8313C0688208
:100E200079828A829B82F6015182408280912503D9
:100E300090912603181619062CF401979093260317
:100E400080932503C5010E942D03892B81F06882C0
:100E500079828A829B828091F5039091F6030196B4
:100E60009093F6038093F503F60151824082089433
:100E7000A11CB11C82E090E0C80ED91E249693E01C
:100E8000A916B10409F0A5CFDF91CF911F910F9161
:100E9000FF90EF90DF90CF90BF90AF909F908F909A
:100EA0007F906F905F904F90089520E030E08091A8
:100EB000CE039091CF03892B11F421E030E03093E1
:100EC000CF032093CE0380ED97E028EC30E0F901CA
:100ED0003197F1F70197D9F7089550982198209804
:100EE0005198869856980895CF93DF9381E190E0CA
:100EF00064E170E047E653E021E030E00E949A169A
:100F00000E94BF162A9A2B9A80E29EE428EC30E0D9
:100F1000F9013197F1F70197D9F72A982B98C0E496
:100F2000DCE90BC0C9010A969093D1038093D003EA
:100F30000E94340BCE010197F1F72091D00330913C
:100F4000D1038091D2039091D3032817390754F32A
:100F5000DF91CF9108950E94CB05892B31F481E078
:100F600090E090930604809305040895EF92FF9219
:100F70000F931F93DF93CF9300D000D00F92CDB784
:100F8000DEB7982F189902C0803719F40E945507D0
:100F900079C01F9902C0833799F480E29EE40197DB
:100FA000F1F720E030E08091FF0390910004892B5D
:100FB00011F421E030E0309300042093FF0362C07D
:100FC0008FB1829586958695837080FD02C0923799
:100FD000D1F420E030E08091FD039091FE03892B55
:100FE00011F421E030E03093FE032093FD03809163
:100FF000050490910604892B09F444C0109206045C
:10100000109205043FC09F3319F40E94F5033AC0C3
:101010009C36C1F582E793E00E94910B0E94480D37
:10102000E82EFF24E7FCF0948DB79EB708970FB623
:10103000F8949EBF0FBE8DBFEDB7FEB731968E01FF
:101040000F5F1F4FADB7BEB712961C930E9311974B
:1010500085E090E0938382838AE793E0958384839D
:10106000F782E6820E94351B8DB79EB708960FB6B1
:10107000F8949EBF0FBE8DBFC8010E94910BC7019F
:101080000E9414060F900F900F900F900F90CF9129
:10109000DF911F910F91FF90EF900895DF92EF92F3
:1010A000FF920F931F93DF93CF93CDB7DEB7E297F5
:1010B0000FB6F894DEBF0FBECDBFD82E0E94B60784
:1010C0000E94FD0C0E94220D7C010E94270D2DB76D
:1010D0003EB72A5030400FB6F8943EBF0FBE2DBF2A
:1010E000EDB7FEB731968E010F5F1F4FADB7BEB79C
:1010F00012961C930E93119722E330E033832283E0
:101100002DE733E035832483F782E6829187808759
:101110000E94351B2DB73EB7265F3F4F0FB6F894A0
:101120003EBF0FBE2DBF83E090E063E070E0A801FA
:1011300021E030E00E949A1683E090E06BE070E0DE
:1011400042E753E021E030E00E949A160E94CB056E
:10115000AC0183E26BE021E030E00E94240583E0F3
:1011600090E063E170E04DE853E021E030E00E9460
:101170009A160E940F06AC0183E263E121E030E0A1
:101180000E9424050E94BF162091FF0330910004A5
:101190001F9905C080E090E043E7D41611F481E088
:1011A00090E0822B932B909300048093FF038D2D6E
:1011B0000E94B60780E29EE40197F1F70E94A31413
:1011C000E2960FB6F894DEBF0FBECDBFCF91DF9190
:1011D0001F910F91FF90EF90DF900895CF93DF93D1
:1011E0008091D0039091D1030E94340B83E090E072
:1011F00063E070E045E953E021E030E00E949A1698
:1012000083E090E06BE070E04EE953E021E030E0F5
:101210000E949A1683E090E062E170E047EA53E0B2
:1012200021E030E00E949A160E94BF16C0E2DEE480
:1012300007C00E94480D0E94B607CE010197F1F742
:101240008091FD039091FE03892B99F30E94A314D2
:10125000DF91CF9108951F93182F0E94C406812F0C
:101260000E94E50B812F0E94790A1F9108950F9328
:101270001F9380E090E067E270E043E550E027E2F2
:1012800030E001E010E00E947E040E946B0C0E949E
:101290001B060E94F20A1F910F910895809103048A
:1012A00090910404892B61F40E941D0482EB93E069
:1012B0000E94910B81E090E09093040480930304DA
:1012C0000E94480D809319060E94B6070E94A3143D
:1012D000809119060E942B09809119060E943709F6
:1012E0000E94BF168091CE039091CF03892B99F075
:1012F00080916F008E7F80936F00809181008B7F43
:1013000080938100809181008D7F80938100809106
:1013100081008E7F06C080916F00816080936F0096
:1013200084E0809381008091FF0390910004892BD9
:1013300099F080916F008E7F80936F008091810083
:101340008B7F80938100809181008D7F80938100CD
:10135000809181008E7F06C080916F0081608093B4
:101360006F0084E0809381000E94AB070895E1E65E
:10137000F0E080E8808381E080830E948C028FE32C
:101380000E94F3160E9424170E949C0B0E94480D95
:10139000809319060E946D07809119060E94B60776
:1013A0000E941B0B0E94900C0E94A30B0E94430AF8
:1013B000809119060E94EE08809119060E94370953
:1013C0000E949D060E94BF1608950F931F93CF930E
:1013D000DF930E94B70901E010E0C0E2DEE438C00C
:1013E0000E94480D809319060E94B6078091190645
:1013F0000E9437090E94BF168091CE039091CF03BF
:10140000892B71F716C00E94480D809319060E941F
:10141000B607809119060E944E08809101049091B0
:101420000204892B31F40E941D04109302040093DE
:1014300001048091FF0390910004892B21F7109201
:101440000204109201040E944E09CE010197F1F7A7
:101450008091050490910604892B71F20E941D046D
:1014600083EC93E00E94910B0E94A3140E947407E6
:101470008FEF93E00E94340B80E090E0DF91CF91FA
:101480001F910F91089580E090E02EEC3FEFFC015A
:10149000EE57F94F11821082FC01E25EF94F318361
:1014A000208302968436910591F70895FC01EE0F92
:1014B000FF1FEE57F94F808191810895FC01EE0FD7
:1014C000FF1FE25EF94F80819181089582E090E0F4
:1014D00008958091D9039091DA03089582E390E012
:1014E0000895FC01EE0FFF1FE25EF94F71836083E8
:1014F0000895EF92FF920F931F93CF93DF93282FBE
:10150000EEE1F6E08081918101978193919386E0ED
:10151000E238F807B9F789B1869580FD03C027370F
:1015200009F059C00E94BE0C7B018C0160911A0623
:1015300070911B0680911C0690911D062DEC3CECD1
:101540004CE45EE30E9442179B01AC01C801B70165
:101550000E94F51888230CF43EC00E94BE0C6093D4
:101560001A0670931B0680931C0690931D06C0916B
:101570000704D0910804CC0FDD1FFE01E25EF94F95
:101580008081918197FF1FC00E94570CCE57D94F81
:1015900002969983888300910704109108040E94A1
:1015A0005C0C000F111F025E194F0297F801918326
:1015B0008083809107049091080401969093080419
:1015C0008093070408C08BEF9FEF91838083109274
:1015D000080410920704DF91CF911F910F91FF90A3
:1015E000EF900895EF92FF920F931F93CF93DF93A5
:1015F000C0E0D0E0DE01AE57B94FFE01E25EF94F28
:10160000608171810091D9031091DA038D919C91D1
:1016100042E050E022E030E0EE24FF240E94B804D3
:101620002296C436D10531F7DF91CF911F910F91EA
:10163000FF90EF90089583E08093BF008FEF809339
:10164000D10082E88093C0003F9A87E08093C10078
:101650001092C3000895292F332727FD3A95209330
:10166000BF008093CF0008952FEF33E0281B390B84
:10167000832F992787FD9A958093BF002093CF00F1
:1016800008951F920F920FB60F9211242F933F933C
:101690004F935F936F937F938F939F93AF93BF937A
:1016A000EF93FF936091090470910A0480910B04F9
:1016B00090910C042DEB37E346E05CE30E94421767
:1016C0006093090470930A0480930B0490930C04B4
:1016D00020E030E040E85FE30E94F518882384F0C2
:1016E00080E090E0A0E0B0E08093090490930A04C9
:1016F000A0930B04B0930C048BB190E489278BB9B1
:10170000FF91EF91BF91AF919F918F917F916F91D9
:101710005F914F913F912F910F900FBE0F901F90AF
:101720001895DC010D900020E9F71197A81BB90B63
:10173000BD010E94FD0D08950E942C0D0E94450DD3
:101740008823E1F30895CF93DF93AAEEB6E047E054
:1017500050E0C1E0D0E026C0CE01022E02C0880FCA
:10176000991F0A94E2F780956823F901E352FC4F30
:10177000808190E0042E02C0959587950A94E2F747
:10178000817090E0022E02C0880F991F0A94E2F740
:10179000682B2F5F3F4F27303105F1F66D93415095
:1017A000504021F06C9120E030E0D6CF86E290E00E
:1017B0009093E9068093E80688E290E09093E7062C
:1017C0008093E606DF91CF910895282F489902C0B3
:1017D0008436D9F48091DB039091DC03892B29F0C6
:1017E0001092DC031092DB030CC080910F049091E7
:1017F0001004892B31F481E090E090930E048093E3
:101800000D041092100410920F0483B1869580FD90
:1018100002C02136D9F480910D0490910E04892BD9
:1018200029F010920E0410920D040CC080910F0448
:1018300090911004892B31F481E090E09093DC03C7
:101840008093DB031092100410920F042091E8069D
:101850003091E9062115310529F41092DC0310922C
:10186000DB030CC08091DB039091DC03892B31F00A
:10187000215030403093E9062093E8062091E80695
:101880003091E9062C34310529F410920E0410929F
:101890000D04089580910D0490910E04892B31F070
:1018A0002F5F3F4F3093E9062093E806089580911B
:1018B000E8069091E90608958091E6069091E70682
:1018C00008959093E9068093E80608959093E706BB
:1018D0008093E6060895CF93DF9380E060E20E9454
:1018E000D2166091E806606880E00E94D21680916E
:1018F000E6069091E70667E070E00E945C1960647C
:1019000080E00E94D216CAEED6E081E069910E9482
:10191000D21686E0C13FD807C1F7DF91CF91089575
:10192000109280001092810081E080936F00789483
:1019300008951F920F920FB60F9211248F939F93C9
:10194000AF93BF938091110490911204A09113045E
:10195000B09114040196A11DB11D809311049093C0
:101960001204A0931304B0931404BF91AF919F91FC
:101970008F910F900FBE0F901F901895AF92BF924E
:10198000CF92DF92EF92FF920F931F93E09084002B
:10199000F0908500609111047091120480911304FD
:1019A000909114040E94431820E030E040E857E48E
:1019B0000E94F9185B016C0100E010E0C801B7015A
:1019C0000E9443189B01AC01C601B5010E94421759
:1019D00020E030E040E853E40E94F91820E034E2CF
:1019E00044EF5AE40E94AA171F910F91FF90EF90C5
:1019F000DF90CF90BF90AF9008950F931F930E94F8
:101A0000BE0C6093F1067093F2068093F3069093F8
:101A1000F4060E9412188B019C01CB016CE370E06C
:101A20000E945C197093F8066093F706C8016CE396
:101A300070E00E945C199093F6068093F5061F9162
:101A40000F9108958091F7069091F806089580917E
:101A5000F5069091F606089581E08093D70080EA1C
:101A60008093D80082E189BD09B400FEFDCF80E9F2
:101A70008093D8001092E000109215041092160482
:101A80008CE08093E2007894089580911504089585
:101A90002FB7F89480911504882369F083E0809330
:101AA000E9009BE68091E80085FD09C082FF03C044
:101AB0009093E800F7CF2FBF2FEF3FEF0CC090912E
:101AC000F1008091E80085FD03C08BE68093E8007B
:101AD0002FBF292F30E0C90108952FB7F8948091C6
:101AE0001504882311F490E010C083E08093E9008E
:101AF0009091F200992349F48091E80082FF05C09B
:101B000085FD03C08BE68093E8002FBF892F0895E1
:101B100080911504882371F09FB7F89483E0809337
:101B2000E9002BE602C02093E8008091E80085FDE3
:101B3000FACF9FBF0895482F809115048823D9F1CB
:101B40002FB7F89484E08093E900809118048823EB
:101B500041F08091E80085FD02C02FBF12C01092B5
:101B600018049091E400975E34E08091E80085FDD0
:101B700013C02FBF8091E400891729F481E080937E
:101B800018048FEF0895809115048823A1F02FB7D2
:101B9000F8943093E900E9CF4093F1008091E80098
:101BA00085FD03C08AE38093E80085E080931704F5
:101BB0002FBF80E008958FEF0895282F809115049E
:101BC000882351F09FB7F89484E08093E9008091D6
:101BD000E80085FD03C09FBF8FEF08952093F100BB
:101BE0008091E80085FD03C08AE38093E80085E0EA
:101BF000809317049FBF80E00895CF93DF93EC019B
:101C000080911504882309F41CC13FB7F89484E03F
:101C10008093E90080911804882309F408C1809119
:101C2000E80085FD02C03FBF0CC110921804FFC040
:101C30009091E400975E8091E80085FD13C03FBF5E
:101C40008091E400891721F481E080931804F9C0A1
:101C500080911504882309F4F4C03FB7F894B09339
:101C6000E900E9CF8091F200242F281B822F90E019
:101C70006817790708F4262F822F90E081349105A8
:101C800008F0C6C08A5A9F4FFC01EE0FFF1F059057
:101C9000F491E02D099489918093F10089918093CA
:101CA000F10089918093F10089918093F1008991ED
:101CB0008093F10089918093F10089918093F100E4
:101CC00089918093F10089918093F10089918093AB
:101CD000F10089918093F10089918093F1008991BD
:101CE0008093F10089918093F10089918093F100B4
:101CF00089918093F10089918093F100899180937B
:101D0000F10089918093F10089918093F10089918C
:101D10008093F10089918093F10089918093F10083
:101D200089918093F10089918093F100899180934A
:101D3000F10089918093F10089918093F10089915C
:101D40008093F10089918093F10089918093F10053
:101D500089918093F10089918093F100899180931A
:101D6000F10089918093F10089918093F10089912C
:101D70008093F10089918093F10089918093F10023
:101D800089918093F10089918093F10089918093EA
:101D9000F10089918093F10089918093F1008991FC
:101DA0008093F10089918093F10089918093F100F3
:101DB00089918093F10089918093F10089918093BA
:101DC000F10089918093F10089918093F1008991CC
:101DD0008093F10089918093F10089918093F100C3
:101DE00089918093F10089918093F100899180938A
:101DF000F10089918093F10089918093F10089919C
:101E00008093F10089918093F10089918093F10092
:101E100089918093F1008091E80085FD02C0509384
:101E2000E800621B7109A09317043FBF04C0B4E02F
:101E300040E45AE3A5E06115710509F0F9CE80E0B0
:101E400001C08FEFDF91CF9108959FB7F8948091F3
:101E50001704882341F084E08093E9008AE38093AB
:101E6000E800109217049FBF08956091E4037091F9
:101E7000E5038091E6039091E70308958091E803DC
:101E800008958091E90308958091EA03089580916F
:101E900016040895282F9FB7F8948091150488237D
:101EA00039F082E08093E9008091E80085FD03C06D
:101EB0009FBF8FEF089581EA8093F10080E28093C5
:101EC000F1001092F1001092F1001092F1001092C6
:101ED000F10081E08093F1001092F1002093F10075
:101EE0008AE38093E8009FBF80E008951F920F92DD
:101EF0000FB60F9211248F939F938091E10010925F
:101F0000E100982F83FF11C01092E90081E08093D7
:101F1000EB001092EC0082E18093ED0088E080936A
:101F2000F000109215041092160492FF13C08091D5
:101F30001504882379F080911704882359F0815083
:101F400080931704882331F484E08093E9008AE3C6
:101F50008093E8009F918F910F900FBE0F901F907C
:101F600018951F920F920FB60F9211240F931F9383
:101F70002F933F934F935F936F937F938F939F9391
:101F8000AF93BF93EF93FF931092E9008091E80025
:101F900083FF3CC14091F1003091F1008091F1004C
:101FA000682F70E02091F100922F80E0682B792B50
:101FB0008091F100A82FB0E02091F100922F80E0F5
:101FC000A82BB92B1091F1000091F10082EF8093C2
:101FD000E800363009F05AC025E331E0A901455048
:101FE0005040F9013797859194918617970701F52D
:101FF000FA01859194918A179B07D1F49A012E5F7B
:102000003F4FF901659174912E5F3F4FF901449163
:10201000212F30E0902F80E0282B392B2F3F3105E6
:1020200019F010F02FEF30E0241758F4422F09C0B8
:10203000295F3F4F495F5F4FF1E02F353F0789F63A
:10204000E5C05EEF8091E800282F30E0C90185707F
:102050009070892BB9F322FDDCC0342F413108F098
:1020600030E1232FCB0106C0FC010196E491E093FF
:10207000F10021502223C1F7630F711D431B5093C0
:10208000E8004423F9F63031E9F2C3C0353061F499
:102090008EEF8093E8008091E80080FFFCCF862FD0
:1020A00080688093E300B5C0393051F5442309F0CE
:1020B000ADC06093150410921604109217048EEFB1
:1020C0008093E80088E591E021E02093E900FC019D
:1020D0000196E491E093EB00EE2369F0AC014F5FD1
:1020E0005F4FFC0184918093EC00CA010196FA01D4
:1020F00034913093ED002F5F253039F78EE181C0A8
:10210000383061F4403809F081C08091E80080FFE8
:10211000FCCF809115048093F10050C0313289F4D6
:10212000413A09F073C08091E80080FFFCCFE4EEF3
:10213000F3E081918093F10083E0EB3EF807C9F76B
:102140003DC03032A1F4413209F060C08091E80016
:1021500082FFFCCFE4EEF3E08091F100819383E015
:10216000EB3EF807C9F78BEF8093E80027C03232C7
:1021700051F4413209F04AC0609316048091E8009E
:1021800080FFFCCF1BC03323E9F48091E80080FF7F
:10219000FCCF423811F080E00DC0A093E90080919F
:1021A000EB0090E025E0969587952A95E1F7817000
:1021B0001092E9008093F1001092F1008EEF80936D
:1021C000E80027C0313011F0333001F54230F1F42E
:1021D000672BE1F42A2F2F77822F81508430B0F4BF
:1021E0008EEF8093E8002093E900333079F089E1A5
:1021F0008093EB0081E090E002C0880F991F2A9540
:10220000E2F78093EA001092EA0003C081E2809333
:10221000EB00FF91EF91BF91AF919F918F917F91D3
:102220006F915F914F913F912F911F910F910F905F
:102230000FBE0F901F901895A1E1B0E0E2E2F1E12E
:102240000C946F193C017F876E876A01FC0117822D
:102250001682838181FD03C06FEF7FEF6FC39E0104
:102260002F5F3F4F398B288BF3012381EE85FF854C
:1022700023FD859123FF8191FF87EE87882309F451
:102280005AC3853251F4EE85FF8523FD859123FFE6
:102290008191FF87EE87853229F490E0B3010E9497
:1022A000091BE2CF982F10E0882499241032B0F453
:1022B0009B3269F09C3228F4903251F0933271F4E1
:1022C0000BC09D3239F0903349F4116028C0126080
:1022D000146025C0186023C0106121C017FD2AC0FA
:1022E000892F80538A3078F416FF06C0FAE09F9E4B
:1022F000902C1124980E13C03AE0839E802C112458
:10230000880E10620CC09E3221F416FD14C31064B6
:1023100006C09C3611F4106802C0983659F4EE8558
:10232000FF8523FD959123FF9191FF87EE879923E8
:1023300009F0BCCF892F8554833020F4812F806130
:10234000905E07C0892F8556833008F09FC1812F8A
:102350008F7E86FD02C076E0972E6FE3F62EF82280
:10236000953619F4F0E4FF2A07C0963619F420E8F0
:10237000F22A02C091109A94F7FE0AC03BE3391585
:1023800018F45CE3B52E02C0B92CB39427E009C061
:1023900047E0491520F4BB2447E0942EF7CF292DC0
:1023A000BB24C60104969D878C87F60160817181EC
:1023B00082819381AE014F5F5F4F0B2D0E941B1AEC
:1023C0006C010981202E332400FF04C003FD02C0EC
:1023D0001DE209C0F1FE02C01BE205C0F2FC02C012
:1023E00010E001C010E2C1018C709070892BB9F12E
:1023F000112311F483E001C084E0881510F08824D3
:102400000AC0881AF3FC07C080E290E0B3010E9482
:10241000091B8A94C9F7112329F0812F90E0B30199
:102420000E94091B23FE03C007EF11E00EC00BEF53
:1024300011E00BC0E114F10409F0805290E0B30107
:102440000E94091B0F5F1F4F05C0EF2CFF24F0E116
:10245000EF22FF24F8018491882361F714C1F7FE6D
:1024600012C0BC0C24FE04C08A81813309F4BA94E2
:102470001B141CF0BB24B3942DC0F8E0FB1550F5E1
:1024800038E0B32E27C0F6FC25C0892D90E08C15CE
:102490009D054CF02CEFC2162FEFD20624F030E849
:1024A000F32A01C09A94992049F0E2E0F0E0EC0FA1
:1024B000FD1FE90DF11D80818033A1F3F7FE0AC0F5
:1024C000B92CB394892D90E0C816D90614F099243C
:1024D00001C09C18F7FC03C025E030E009C01C14C3
:1024E0001D041CF021E030E003C096012F5F3F4F38
:1024F000112311F02F5F3F4F992029F0892D90E093
:102500000196280F391F882D90E02817390714F0FD
:10251000882401C0821A4F2C5524C2018970907002
:10252000892B39F008C080E290E0B3010E94091BBA
:102530008A948820C1F7112329F0812F90E0B301FC
:102540000E94091B43FE07C008C080E390E0B3016E
:102550000E94091B8A948820C1F7F7FE46C08601B5
:10256000D7FE02C000E010E076010894E11CF11CE7
:10257000E01AF10A41E050E04C0F5D1FE40EF51E39
:1025800026014B185108892D90E0AA24BB24A81AD3
:10259000B90A5FEF0F3F150729F48EE290E0B3010F
:1025A0000E94091BC016D10634F0401651061CF4D7
:1025B000F701808101C080E3015010400894E11CC4
:1025C000F11C0A151B052CF090E0B3010E94091BB9
:1025D000E0CF0C151D0539F49A81963318F4953324
:1025E00011F424FE81E390E04BC08A81813309F02D
:1025F0000F7E90E0B3010E94091B9920A1F08EE2AA
:1026000090E0B3010E94091B12E0E1E0F0E0EC0F62
:10261000FD1FE10FF11D1F5F808190E0B3010E945B
:10262000091B9A9491F744FC03C085E690E002C030
:1026300085E490E0B3010E94091BD7FC05C0C114DA
:10264000D10441F404FF06C0D094C194D108D394BE
:102650008DE201C08BE290E0B3010E94091B80E390
:1026600005C08F5F26EF3FEFC20ED31E3AE0C316C0
:10267000D104BCF790E0B3010E94091BC601C096CB
:10268000B3010E94091BCC84DD8452C1933631F022
:10269000933799F0933509F059C023C0F601808132
:1026A00089835E010894A11CB11C22E030E0C20EB7
:1026B000D31E21E0E22EF12C12C0F601A080B180E1
:1026C00016FD03C06FEF7FEF02C0692D70E022E0BE
:1026D00030E0C20ED31EC5010E94FE1A7C011F7796
:1026E00013C0F601A080B18016FD03C06FEF7FEF2D
:1026F00002C0692D70E022E030E0C20ED31EC50199
:102700000E94F31A7C01106813FF07C01BC080E20F
:1027100090E0B3010E94091B8A94882D90E0E8168E
:10272000F906A8F30FC0F50117FD859117FF8191F8
:102730005F0190E0B3010E94091B81108A94089404
:10274000E108F108E114F10471F7F2C0943611F0D8
:10275000993689F517FF08C0F60120813181428141
:10276000538184E090E00AC0F601808191819C0150
:10277000442737FD4095542F82E090E0C80ED91EC3
:102780009FE6F92EF12257FF09C0509540953095EC
:1027900021953F4F4F4F5F4F90E8F92ACA01B90189
:1027A000AE014F5F5F4F2AE030E00E94661BE82ECB
:1027B000E889EE1A41C0953721F41F7E2AE030E007
:1027C0001CC0197F9F3661F0903720F4983509F0CE
:1027D000B2C00FC0903739F0983709F0ACC004C0D0
:1027E00028E030E00AC0106114FD146020E130E000
:1027F00004C014FD166020E132E017FF08C0F601A6
:10280000608171818281938144E050E008C0F601CB
:1028100080819181BC0180E090E042E050E0C40EF4
:10282000D51EAE014F5F5F4F0E94661BE82E588990
:10283000E51A8FE7F82EF122F6FE0BC08EEFF82294
:10284000E91438F4F4FE07C0F2FC05C09FEEF9224B
:1028500002C01E2D01C0192DF4FE0DC0FE01EE0DAB
:10286000F11D8081803319F4E9EEFE2208C01F5F5C
:10287000F2FE05C003C08F2D867809F01F5F0F2D73
:10288000F3FC14C0F0FE0FC0181510F09E2C0BC006
:102890009E2C980C911A182D06C080E290E0B3018E
:1028A0000E94091B1F5F1815C0F304C0181510F40F
:1028B000811A01C0882404FF0FC080E390E0B301B7
:1028C0000E94091B02FF1DC001FD03C088E790E0C4
:1028D0000EC088E590E00BC0802F867891F001FF54
:1028E00002C08BE201C080E2F7FC8DE290E0B30110
:1028F0000E94091B06C080E390E0B3010E94091BFF
:102900009A94E914C0F3EA94E1E0F0E0EC0FFD1FC3
:10291000EE0DF11D808190E0B3010E94091BEE20B5
:1029200091F706C080E290E0B3010E94091B8A94EF
:102930008820C1F799CCF30166817781CB0161963C
:10294000E2E10C948B19E9EFF6E0119288E0E13FA7
:10295000F807D9F708959C0197FD37C077FD35C07A
:102960008435910594F5603371057CF5CB0173E0F6
:10297000959587957A95E1F76770452B99F0E4E591
:102980008E9FF0011124E20FF31FE750F94F81E011
:1029900090E002C0880F991F6A95E2F72081282BEA
:1029A00020830895E4E58E9FF0011124E20FF31FC8
:1029B000E750F94F81E090E002C0880F991F6A95B7
:1029C000E2F7809520812823208308952F923F925B
:1029D0004F925F926F927F928F929F92AF92BF922F
:1029E000CF92DF92EF92FF920F931F93DF93CF93DB
:1029F000CDB7DEB72E970FB6F894DEBF0FBECDBFB2
:102A00007C016B014A0139011C870B8784179507EC
:102A1000F9F45B0110C0C701B5014B855C850E94CC
:102A2000AB14C614D70424F40894A11CB11C03C031
:102A30000894A108B108C614D7042CF46A147B04C6
:102A40000CF4FDC0E8CFA614B7040CF4F8C0E3CF33
:102A500062177307F9F45C0110C0C501B6014B851C
:102A60005C850E94AB14E814F90424F40894A11CBA
:102A7000B11C03C00894A108B108E814F9042CF4AF
:102A80008A149B040CF4DBC0E8CFA814B9040CF43E
:102A9000D6C0E3CF4817590724F447017A013B0118
:102AA0006901B4016E197F09882777FD8095982FF9
:102AB0000E9445186F83788789879A87B3016C19BC
:102AC0007D09882777FD8095982F0E9445186B8394
:102AD0007C838D839E832F81388549855A850E940A
:102AE000AA171B012C0120E030E040E050E00E94DA
:102AF000F51887FF04C057FA509457F85094DA82BB
:102B0000C9820F2EF0E0AF2EF0E0BF2EF0E0CF2E06
:102B1000F0E0DF2EF02D7FC0C70169817A814B85FF
:102B20005C850E94AB14C601B501A20191010E940F
:102B300042173BC0C70169817A814B855C850E9441
:102B4000AB141E861D866B817C818D819E8120E069
:102B500030E040E050E00E94F518181624F421E01F
:102B600030E03E872D8700E010E06B817C818D8115
:102B70009E8120E030E040E050E00E94A6178823CC
:102B800014F401E010E08D859E85801B910BE98196
:102B9000FA81E80FF91FFA83E983C601B50120E045
:102BA00030E040E85FE30E9441175B016C0120E0E8
:102BB00030E040E05FE30E94F5188823CCF06B81A1
:102BC0007C818D819E8120E030E040E050E00E94D9
:102BD000F51818163CF429813A81621673060CF038
:102BE000A9CF06C089819A81861597050CF0A2CFDE
:102BF0006F81788589859A8520E030E040E050E05B
:102C00000E94F518181624F40894E11CF11C03C066
:102C10000894E108F1086F81788589859A8520E01C
:102C200030E040E050E00E94F518181624F48E14AD
:102C30009F042CF071CFE814F9040CF06DCF2E96A0
:102C40000FB6F894DEBF0FBECDBFCF91DF911F91BD
:102C50000F91FF90EF90DF90CF90BF90AF909F903B
:102C60008F907F906F905F904F903F902F9008953E
:102C70004F925F926F927F928F929F92AF92BF928C
:102C8000CF92DF92EF92FF920F931F93CF93DF9338
:102C90003B01490125E0429FA0011124AFE5EA2E46
:102CA000A1E0FA2EE40EF51E8C01F1E04F2E512C1E
:102CB000E4E6AE2EE1E0BE2EA40EB51EF70184912F
:102CC0008114910409F48095C0E0D0E0C82EDD2481
:102CD000BE01660D771DA2010C2E02C0440F551FC8
:102CE0000A94E2F74C215D210C2E02C055954795C0
:102CF0000A94E2F7C8010E94AB142196C830D105AE
:102D000039F70894E11CF11C0F5F1F4FEA14FB0414
:102D1000A9F6DF91CF911F910F91FF90EF90DF9077
:102D2000CF90BF90AF909F908F907F906F905F906B
:102D30004F900895CF92DF92EF92FF920F931F93DF
:102D4000CF93DF936B017A01E901082F10E008C0EF
:102D5000802F90E0B6019E010E9438160B5F1F5F26
:102D6000F701E10FF11D4081442391F7DF91CF91ED
:102D70001F910F91FF90EF90DF90CF900895CF9328
:102D8000DF9380E060E00E943417C9EFD6E081E075
:102D900069910E94D21688E0C13FD807C1F7DF9140
:102DA000CF91089595B18295880F807E9F7D982B55
:102DB00095B95F9827E030E070E08F98CB01022E44
:102DC00002C0959587950A94E2F780FF02C02E9A7B
:102DD00001C02E988F9A215030408FEF2F3F380737
:102DE00061F75F9A08951F93182F579A249A259A8E
:102DF000269A879A2C985F9A2C9A80E061E20E942A
:102E0000D216106880E0612F0E94D21680E064E044
:102E10000E94D21680E063E10E94D21680E06CE04E
:102E20000E94D21680E060E20E94D21680E06CE040
:102E30000E94D21680E060E40E94D21680E060E832
:102E40000E94D2161F910895CF93DF93C0E0D0E087
:102E500081E060E00E94D216219681E0C83FD80749
:102E6000B9F7DF91CF9108951F93182F606480E028
:102E70000E94D216106880E0612F0E94D2161F9126
:102E800008955058BB27AA270ED075C166D130F0DF
:102E90006BD120F031F49F3F11F41EF45BC10EF4AE
:102EA000E095E7FB51C1E92F77D180F3BA176207AC
:102EB00073078407950718F071F49EF58FC10EF41F
:102EC000E0950B2EBA2FA02D0B01B90190010C013A
:102ED000CA01A0011124FF27591B99F0593F50F452
:102EE000503E68F11A16F040A22F232F342F4427AA
:102EF000585FF3CF469537952795A795F0405395A2
:102F0000C9F77EF41F16BA0B620B730B840BBAF071
:102F10009150A1F0FF0FBB1F661F771F881FC2F7DC
:102F20000EC0BA0F621F731F841F48F487957795F0
:102F30006795B795F7959E3F08F0B3CF9395880FA7
:102F400008F09927EE0F979587950895D9D008F442
:102F500081E008950CD00FC107D140F0FED030F0D1
:102F600021F45F3F19F0F0C0511139C1F3C014D101
:102F700098F39923C9F35523B1F3951B550BBB2740
:102F8000AA2762177307840738F09F5F5F4F220FED
:102F9000331F441FAA1FA9F333D00E2E3AF0E0E8E6
:102FA00030D091505040E695001CCAF729D0FE2F32
:102FB00027D0660F771F881FBB1F261737074807C4
:102FC000AB07B0E809F0BB0B802DBF01FF2793587A
:102FD0005F4F2AF09E3F510568F0B6C000C15F3FC9
:102FE000ECF3983EDCF3869577956795B795F79562
:102FF0009F5FC9F7880F911D9695879597F908955A
:10300000E1E0660F771F881FBB1F621773078407F5
:10301000BA0720F0621B730B840BBA0BEE1F88F704
:10302000E095089504D06894B111D9C00895BCD03A
:1030300088F09F5790F0B92F9927B751A0F0D1F0A1
:10304000660F771F881F991F1AF0BA95C9F712C02B
:10305000B13081F0C3D0B1E00895C0C0672F782FA0
:103060008827B85F39F0B93FCCF386957795679597
:10307000B395D9F73EF490958095709561957F4F03
:103080008F4F9F4F0895E89409C097FB3EF49095A9
:103090008095709561957F4F8F4F9F4F9923A9F031
:1030A000F92F96E9BB279395F695879577956795C0
:1030B000B795F111F8CFFAF4BB0F11F460FF1BC004
:1030C0006F5F7F4F8F4F9F4F16C0882311F096E997
:1030D00011C0772321F09EE8872F762F05C0662345
:1030E00071F096E8862F70E060E02AF09A95660FFE
:1030F000771F881FDAF7880F9695879597F90895B7
:10310000990F0008550FAA0BE0E8FEEF16161706F8
:10311000E807F907C0F012161306E407F50798F060
:10312000621B730B840B950B39F40A2661F0232B79
:10313000242B252B21F408950A2609F4A140A695F5
:103140008FEF811D811D089597F99F6780E870E0DA
:1031500060E008959FEF80EC089500240A9416160D
:10316000170618060906089500240A941216130675
:10317000140605060895092E0394000C11F4882303
:1031800052F0BB0F40F4BF2B11F460FF04C06F5F1F
:103190007F4F8F4F9F4F089557FD9058440F551FF5
:1031A00059F05F3F71F04795880F97FB991F61F0C9
:1031B0009F3F79F087950895121613061406551F40
:1031C000F2CF4695F1DF08C0161617061806991FAC
:1031D000F1CF86957105610508940895E894BB27A1
:1031E00066277727CB0197F908958ADF08F48FEFD8
:1031F00008950BD0C0CFB1DF28F0B6DF18F09523CB
:1032000009F0A2CFA7CF1124EACFC6DFA0F3959F84
:10321000D1F3950F50E0551F629FF001729FBB27BD
:10322000F00DB11D639FAA27F00DB11DAA1F649F69
:103230006627B00DA11D661F829F2227B00DA11D1C
:10324000621F739FB00DA11D621F839FA00D611DA2
:10325000221F749F3327A00D611D231F849F600DC3
:10326000211D822F762F6A2F11249F5750408AF0FC
:10327000E1F088234AF0EE0FFF1FBB1F661F771F88
:10328000881F91505040A9F79E3F510570F05CCFC8
:10329000A6CF5F3FECF3983EDCF386957795679574
:1032A000B795F795E7959F5FC1F7FE2B880F911DA6
:1032B0009695879597F9089597FB092E07260AD0CA
:1032C00077FD04D043D006D000201AF470956195A4
:1032D0007F4F0895F6F7909581959F4F08952F920F
:1032E0003F924F925F926F927F928F929F92AF9296
:1032F000BF92CF92DF92EF92FF920F931F93CF93E3
:10330000DF93CDB7DEB7CA1BDB0B0FB6F894DEBF79
:103310000FBECDBF09942A88398848885F846E849F
:103320007D848C849B84AA84B984C884DF80EE80E9
:10333000FD800C811B81AA81B981CE0FD11D0FB6F2
:10334000F894DEBF0FBECDBFED010895AA1BBB1BD5
:1033500051E107C0AA1FBB1FA617B70710F0A61B95
:10336000B70B881F991F5A95A9F780959095BC01B6
:10337000CD010895A0E0B0E0E0ECF9E10C947719FC
:10338000EC01A880B980CA80DB80A114B104C1041B
:10339000D10441F484E2A82E89EDB82E8BE5C82E25
:1033A00087E0D82EC601B5012DE133EF41E050E0B2
:1033B0000E94E31B27EA31E440E050E00E94C41B76
:1033C0007B018C01C601B5012DE133EF41E050E0F6
:1033D0000E94E31BCA01B9012CEE34EF4FEF5FEFFF
:1033E0000E94C41B6E0D7F1D801F911F97FF04C09C
:1033F0006150704080409048688379838A839B83C2
:103400009B013F77C901CDB7DEB7EAE00C94931971
:103410000E94BA1908958BEE93E00E94BA1908959C
:10342000A0E0B0E08093EB039093EC03A093ED0356
:10343000B093EE030895283008F027E03327DA012F
:10344000990F311D87FD916000966105710539F472
:1034500032602E5F3D9330E32A95E1F708959F3F58
:1034600030F080387105610509F03C5F3C5F3D93A9
:10347000913008F08068911DDF93CF931F930F93D5
:10348000FF92EF92192F987F9695E92F9695969532
:10349000E90FFF27E75CFB4F99273327EE24FF2432
:1034A000A701E70105900894079428F4360FE71E5A
:1034B000F81E491F511D660F771F881F991F06941C
:1034C000A1F70590079428F4E70EF81E491F561F30
:1034D000C11D770F881F991F661F0694A1F70590DD
:1034E000079428F4F80E491F561FC71FD11D880FD7
:1034F000991F661F771F0694A1F70590079420F483
:10350000490F561FC71FD81F990F661F771F881FA7
:103510000694A9F784911095177041F0D695C79538
:1035200057954795F794E7941A95C1F7EFEDF3E0B7
:1035300068941590159135916591959105907FE26C
:103540007395E118F10A430B560BC90BD009C0F76C
:10355000E10CF11E431F561FC91FD01D7EF47033AE
:1035600011F48A95E6CFE894015030F0080F0AF480
:103570000027021708F4202F2395022F7A3328F012
:1035800079E37D932A95E9F710C07D932A9589F612
:10359000069497956795379517951794E118F10A52
:1035A000430B560BC90BD00998F023957E91739568
:1035B0007A3308F070E37C932013B8F77E91706142
:1035C0007D9330F0839571E37D9370E32A95E1F765
:1035D0001124EF90FF900F911F91CF91DF919927C8
:1035E00087FD90950895FC01059061507040011091
:1035F000D8F7809590958E0F9F1F0895FC0161501C
:10360000704001900110D8F7809590958E0F9F1F04
:1036100008950F931F93CF93DF938C01EB018B8160
:1036200081FF1BC082FF0DC02E813F818C819D8157
:103630002817390764F4E881F9810193F983E88355
:1036400006C0E885F985802F0995892B31F48E8194
:103650009F8101969F838E8302C00FEF1FEFC801E9
:10366000DF91CF911F910F910895AEE0B0E0EBE3B1
:10367000FBE10C947D190D891E898F89988D97FF28
:1036800002C080E090E801979E838D831A830983AE
:1036900086E08C839E01255E3F4FCE010196698DA9
:1036A0007A8DA9010E941C114D815E8157FD0AC0CF
:1036B0002F813885421753070CF49A01020F131F0C
:1036C000F80110822E96E4E00C949919FA01AA27C9
:1036D000283051F1203181F1E8946F936E7F6E5F55
:1036E0007F4F8F4F9F4FAF4FB1E03ED0B4E03CD003
:1036F000670F781F891F9A1FA11D680F791F8A1FE6
:10370000911DA11D6A0F711D811D911DA11D20D04C
:1037100009F468943F912AE0269F11243019305D06
:103720003193DEF6CF010895462F4770405D4193F7
:10373000B3E00FD0C9F7F6CF462F4F70405D4A3344
:1037400018F0495D31FD4052419302D0A9F7EACF0C
:10375000B4E0A6959795879577956795BA95C9F73B
:1037600000976105710508959B01AC010A2E06942E
:103770005795479537952795BA95C9F7620F731FE7
:10378000841F951FA01D0895629FD001739FF001B3
:10379000829FE00DF11D649FE00DF11D929FF00DE1
:1037A000839FF00D749FF00D659FF00D9927729F18
:1037B000B00DE11DF91F639FB00DE11DF91FBD01A3
:1037C000CF011124089597FB092E05260ED057FD31
:1037D00004D014D00AD0001C38F450954095309590
:1037E00021953F4F4F4F5F4F0895F6F79095809585
:1037F000709561957F4F8F4F9F4F0895A1E21A2ECC
:10380000AA1BBB1BFD010DC0AA1FBB1FEE1FFF1F84
:10381000A217B307E407F50720F0A21BB30BE40BD4
:10382000F50B661F771F881F991F1A9469F760951B
:103830007095809590959B01AC01BD01CF010895D5
:04384000F894FFCF2A
:10384400436F6E74726F6C733A0A0D27612720E21E
:103854008093206D6F76652073706163657368690A
:1038640070206C6566740A0D27642720E28093201B
:103874006D6F76652073706163657368697020721B
:10388400696768740A0D27772720E28093206669A8
:10389400726520706C61736D6120626F6C74730A61
:1038A4000D27732720E280932073656E642F64696B
:1038B40073706C6179207374617475730A0D277267
:1038C4002720E280932073746172742F726573658C
:1038D400740A0D27702720E2809320706175736548
:1038E4000A0D27712720E2809320717569740A0DEF
:1038F40027742720E28093207365742061696D200A
:10390400282D363020746F203630290A0D276D2774
:1039140020E28093207365742073706565642028A9
:103924003020746F203130290A0D276C2720E28063
:103934009320736574206C6966650A0D27672720D8
:10394400E28093207365742073636F72650A0D2798
:103954003F2720E28093207072696E7420636F6E3B
:1039640074726F6C730A0D27682720E280932073AA
:10397400706163657368697020746F20636F6F7220
:10398400640A0D276A2720E28093206173746572AC
:103994006F696420746F20636F6F72640A0D276B04
:1039A4002720E2809320626F756C64657220746FC7
:1039B40020636F6F72640A0D27692720E2809320C9
:1039C400667261676D656E7420746F20636F6F72C9
:1039D400640A0A0D0054696D653A20253032643A50
:1039E400253032640A0D4C697665733A2025640AE1
:1039F4000D53636F72653A2025640A0D4173746533
:103A0400726F6964733A2025640A0D426F756C64A1
:103A14006572733A2025640A0D467261676D656E9E
:103A240074733A2025640A0D506C61736D612062D1
:103A34006F6C74733A2025640A0D54757272657440
:103A44002061696D3A2025640A0D53706565642010
:103A54006F662067616D653A2025640A0A0D0025AA
:103A6400640025660005000000E0C00000E0C0001E
:103A740000E0C020202023202020202023232320F6
:103A8400202023232323232023232323232323200E
:103A9400232323232320202023232320202020200A
:103AA4002320202000330347414D45204F564552E3
:103AB40021004C697665733A200025630054696DD2
:103AC400653A20253032643A253032640053636FFE
:103AD40072653A20006E3937333739313700417314
:103AE4007465726F69640041706F63616C7970739F
:103AF400650047616D652073746172746564210AA1
:103B04000A0D0047616D65206F7665722100010022
:103B14002003FF032323232300D4030100101010E8
:103B2400107CFEAA00E10000000008010000000073
:00000001FF
