:100000000C946D020C948A020C948A020C948A025D
:100010000C948A020C948A020C948A020C948A0230
:100020000C948A020C948A020C94FD0D0C94380EE8
:100030000C948A020C948A020C948A020C948A0210
:100040000C948A020C948A020C948A020C948A0200
:100050000C9499020C948A020C948A020C940B055D
:100060000C948A020C948A020C948A020C948A02E0
:100070000C948A020C948A020C948A020C948A02D0
:100080000C948A020C948A020C948A020C94DC046C
:100090000C948A020C948A020C948A020C948A02B0
:1000A0000C948A020C948A020C948A02E30DE00DEF
:1000B000DD0DDA0DD70DD40DD10DCE0DCB0DC80D44
:1000C000C50DC20DBF0DBC0DB90DB60DB30DB00DF4
:1000D000AD0DAA0DA70DA40DA10D9E0D9B0D980DA4
:1000E000950D920D8F0D8C0D890D860D830D800D54
:1000F0007D0D7A0D770D740D710D6E0D6B0D680D04
:10010000650D620D5F0D5C0D590D560D530D500DB3
:100110004D0D4A0D470D440D410D3E0D3B0D380D63
:10012000350D320D2F0D2C0D290D260D230D00013F
:10013000000062011200020000740143000300008D
:10014000B7010401030904BB011402030904D1012E
:100150001603030904E9010C0001C11201803601F4
:1001600081361201000202000010C0167A0400015C
:100170000102030109024300020100C03209040028
:100180000001020201000524001001052401010103
:10019000042402060524060001070582031000401E
:1001A00009040100020A00000007050302400000E4
:1001B0000705840240000004030904140359006F7A
:1001C000007500720020004E0061006D00650000A7
:1001D00000160355005300420020005300650072D2
:1001E00000690061006C0000000C03310032003334
:1001F00000340035000000000000000000005F0037
:10020000000007000700147F147F14242A7F2A129D
:10021000231308646236495522500005030000008C
:100220001C2241000041221C0014083E081408084A
:100230003E08080050300000080808080800606008
:10024000000020100804023E5149453E00427F4014
:100250000042615149462141454B311814127F102B
:1002600027454545393C4A4949300171090503365E
:1002700049494936064949291E00363600000056CC
:1002800036000008142241001414141414004122F2
:1002900014080201510906324979413E7E111111BB
:1002A0007E7F494949363E414141227F4141221CDE
:1002B0007F494949417F090909013E4149497A7FFE
:1002C0000808087F00417F41002040413F017F082E
:1002D0001422417F404040407F020C027F7F04088F
:1002E000107F3E4141413E7F090909063E415121AF
:1002F0005E7F09192946464949493101017F0101BB
:100300003F4040403F1F2040201F3F4038403F6358
:100310001408146307087008076151494543007FBA
:1003200041410002040810200041417F0004020105
:100330000204404040404000010204002054545454
:10034000787F484444383844444420384444487F03
:100350003854545418087E0901020C5252523E7F00
:100360000804047800447D40002040443D007F1094
:1003700028440000417F40007C041804787C080475
:10038000047838444444387C1414140808141418AD
:100390007C7C080404084854545420043F44402002
:1003A0003C4040207C1C2040201C3C4030403C44D1
:1003B000281028440C5050503C4464544C440008CD
:1003C00036410000007F0000004136080010080898
:1003D000100878464146786E616E00696E660000CE
:1003E000407A10F35A00A0724E18090010A5D4E804
:1003F0000000E87648170000E40B54020000CA9A97
:100400003B000000E1F505000080969800000040E8
:10041000420F000000A0860100000010270000002D
:1004200000E803000000006400000000000A000073
:100430000000000100000000002C76D888DC674F27
:100440000823DFC1DFAE59E1B1B796E5E3E453C657
:100450003AE651997696E8E6C28426EB898C9B624F
:10046000ED407C6FFCEFBC9C9F40F2BAA56FA5F4F9
:1004700090055A2AF75C936B6CF9676DC11BFCE021
:10048000E40D47FEF520E6B500D0ED902E03009474
:100490003577050080841E080000204E0A00000009
:1004A000C80C333333330F986E12831141EF8D2113
:1004B00014893BE65516CFFEE6DB18D1844B381B7A
:1004C000F77C1D901DA4BBE424203284725E22813F
:1004D00000C9F124ECA1E53D270011241FBECFEF98
:1004E000DAE0DEBFCDBF13E0A0E0B1E0EEEAF2E378
:1004F00002C005900D92A03DB107D9F718E0A0ED1C
:10050000B3E001C01D92A13DB107E1F70E94F808D8
:100510000C9455190C94000087E880937A00089594
:10052000109280001092810081E080936F00789497
:1005300008951F920F920FB60F9211248F939F93DD
:10054000AF93BF938091D0039091D103A091D20338
:10055000B091D3030196A11DB11D8093D003909358
:10056000D103A093D203B093D303BF91AF919F91D6
:100570008F910F900FBE0F901F901895AF92BF9262
:10058000CF92DF92EF92FF920F931F93E09084003F
:10059000F09085006091D0037091D1038091D203D7
:1005A0009091D3030E94781520E030E040E857E4B2
:1005B0000E942E165B016C0100E010E0C801B7013B
:1005C0000E9478159B01AC01C601B5010E94771409
:1005D00020E030E040E853E40E942E1620E034E2B0
:1005E00044EF5AE40E94DF141F910F91FF90EF90A7
:1005F000DF90CF90BF90AF9008950F931F930E940C
:10060000BE026093F9037093FA038093FB03909307
:10061000FC030E9447158B019C01CB016CE370E049
:100620000E949116709300046093FF03C8016CE36D
:1006300070E00E9491169093FE038093FD031F913A
:100640000F9108958091FF03909100040895809187
:10065000FD039091FE030895FC01EE0FFF1FEE0FC6
:10066000FF1FEF5FFB4F60817181828193810E9448
:100670004715CB010895FC01EE0FFF1FEE0FFF1F82
:10068000EE5FFE4F60817181828193810E944715E8
:10069000CB01089587E090E008958091400190910A
:1006A0004101089580910001909101010895CF9238
:1006B000DF92EF92FF920F931F93CF93DF9322E08D
:1006C000C22E21E0D22EC0E0D0E0F601E080F18021
:1006D00002811381C801B70120E030E040E052E41C
:1006E0000E94DB1488235CF4C801B70120E030E0ED
:1006F00040EE50EC0E942A1618160CF4219684E065
:1007000090E0C80ED91E9EE0C91691E0D906E9F620
:10071000C093D403D093D503CE01DF91CF911F9125
:100720000F91FF90EF90DF90CF9008958091D603C6
:100730009091D703089597FD04C090930101809391
:1007400000010895CF92DF92EF92FF920F931F93D3
:10075000609101047091020480910304909104045B
:100760000E9447156B017C016091020170910301A9
:1007700080910401909105010E9447159B01AC01F5
:100780000091400110914101C601B90147E050E0DC
:1007900027E030E0A1E0EA2EF12C0E94170A6091D8
:1007A00005047091060480910704909108040E944A
:1007B00047156B017C0160910601709107018091E2
:1007C0000801909109010E9447159B01AC0100911D
:1007D000400110914101C601B90147E050E027E016
:1007E00030E0F1E0EF2EF12C0E94170A609109042D
:1007F00070910A0480910B0490910C040E9447159B
:100800006B017C0160910A0170910B0180910C01D8
:1008100090910D010E9447159B01AC010091400190
:1008200010914101C601B90147E050E027E030E0F6
:10083000E1E0EE2EF12C0E94170A1F910F91FF901C
:10084000EF90DF90CF9008950F931F938C010E943B
:10085000BE020E944C15DC01CB010E9445170E948C
:100860004017000F111F000F111F0F5F1B4F6CE48B
:1008700070E00E949116AA2797FDA095BA2FBC019F
:10088000CD010E947A15F80160837183828393837E
:100890001F910F9108954F925F926F927F928F9266
:1008A0009F92AF92BF92CF92DF92EF92FF920F93FF
:1008B0001F93CF93DF9308EDC02E03E0D02EC2E04C
:1008C000D1E0AA24BB240F2EF0E06F2EF0E07F2EA3
:1008D000F0EE8F2EF0EC9F2EF02D11E0412E512CDA
:1008E000F60180819181019719F4C5010E942404C9
:1008F000E880F9800A811B81C801B70120E030E05F
:1009000040E052E40E94DB14882384F4F601118253
:100910001082C801B7012AE939E949E95EE30E947A
:100920007714688379838A839B8313C06882798272
:100930008A829B82F60151824082809100019091CF
:100940000101181619062CF4019790930101809368
:100950000001C5010E94F305892B81F0688279822C
:100960008A829B828091D6039091D70301969093BF
:10097000D7038093D603F601518240820894A11CCC
:10098000B11C82E090E0C80ED91E249693E0A9160F
:10099000B10409F0A5CFDF91CF911F910F91FF9086
:1009A000EF90DF90CF90BF90AF909F908F907F900F
:1009B0006F905F904F9008951F920F920FB60F9215
:1009C00011248F939F938091DE03880F8093DE0321
:1009D0008091DE038F738093DE039091DE038FB1ED
:1009E000829586958170892B8093DE038091DE034A
:1009F0008F3321F481E08093DF0306C08091DE0312
:100A0000882311F41092DF039F918F910F900FBEF6
:100A10000F901F9018951F920F920FB60F921124EE
:100A20002F933F934F935F936F937F938F939F93F6
:100A3000AF93BF93EF93FF936091E1037091E20353
:100A40008091E3039091E4032DEB37E346E05CE310
:100A50000E9477146093E1037093E2038093E303B1
:100A60009093E40320E030E040E85FE30E942A1620
:100A7000882384F080E090E0A0E0B0E08093E10380
:100A80009093E203A093E303B093E4038BB190E46B
:100A900089278BB9FF91EF91BF91AF919F918F9172
:100AA0007F916F915F914F913F912F910F900FBE6A
:100AB0000F901F901895DC010D900020E9F7119719
:100AC000A81BB90BBD010E94D50C08950E94940C7F
:100AD0000E94AD0C8823E1F308952F923F924F922C
:100AE0005F926F927F928F929F92AF92BF92CF92BE
:100AF000DF92EF92FF920F931F93DF93CF9300D07B
:100B000000D0CDB7DEB72B015A8349833901698DF7
:100B10007A8D9C012E193F09A2014C195D09FA0139
:100B2000EA9DA001EB9D500DFA9D500D1124240F5C
:100B3000351F620F731FAC0189819A81840F951F45
:100B40009C838B83640C751C15012E0C3F1C8C0C34
:100B50009D1C23C04E155F057CF04215530564F4BF
:100B60002C153D054CF02815390534F48C91803254
:100B700019F080818032E9F42F5F3F4FAA0DBB1D31
:100B800089819A81E80FF91F261537051CF34F5FFD
:100B90005F4F0F5F1F4F6F5F7F4FEB81FC814E17E1
:100BA0005F071CF020E030E006C09201DB01F80195
:100BB000EBCF21E030E0C9010F900F900F900F9024
:100BC000CF91DF911F910F91FF90EF90DF90CF9029
:100BD000BF90AF909F908F907F906F905F904F905D
:100BE0003F902F9008952F923F924F925F926F9275
:100BF0007F928F929F92AF92BF92CF92DF92EF92AD
:100C0000FF920F931F93DF93CF9300D000D000D0BB
:100C1000CDB7DEB79C838B831E821D8245C08D813C
:100C20009E810E94CF0A9A8389838D819E810E9432
:100C3000D70A1C010E94DF0A2C010E94DF0A3C0136
:100C40000E94E20A8C018B819C810E942C037C0112
:100C50008B819C810E943B036C010E944A035C01D2
:100C60000E944A034C010E944D0300D0EDB7FEB72D
:100C70009283818389819A81B101A20193010E94AB
:100C80006D050F900F90892B49F08D819E816EEC40
:100C90007FEF0E94EA0A21E030E010C02D813E8102
:100CA0002F5F3F4F3E832D830E94E70AED81FE8137
:100CB000E817F9070CF4B3CF20E030E0C90126961D
:100CC0000FB6F894DEBF0FBECDBFCF91DF911F915D
:100CD0000F91FF90EF90DF90CF90BF90AF909F90DB
:100CE0008F907F906F905F904F903F902F900895DE
:100CF00020E030E08091A9019091AA01892B11F4A4
:100D000021E030E03093AA012093A90180ED97E023
:100D100028EC30E0F9013197F1F70197D9F7089500
:100D20005098219820985198869856980895CF9376
:100D3000DF9381E190E064E170E042E451E021E082
:100D40000E9448100E946D102A9A2B9A80E29EE41D
:100D500028EC30E0F9013197F1F70197D9F72A989B
:100D60002B98C0E4DCE90BC0C9010A969093AC0152
:100D70008093AB010E94A40BCE010197F1F7209163
:100D8000AB013091AC018091AD019091AE0128177B
:100D9000390754F3DF91CF9108950E945203892BB4
:100DA00031F481E090E09093EE038093ED03089599
:100DB000FF920F931F93DF93CF9300D000D00F9239
:100DC000CDB7DEB7982F189902C0803719F40E946A
:100DD000780677C01F9902C0833799F480E29EE4B9
:100DE0000197F1F720E030E08091E7039091E8036C
:100DF000892B11F421E030E03093E8032093E703DE
:100E000060C08FB1829586958695837080FD02C003
:100E10009237D1F420E030E08091E5039091E60331
:100E2000892B11F421E030E03093E6032093E503B1
:100E30008091ED039091EE03892B09F442C010924A
:100E4000EE031092ED033DC09F3319F40E94560942
:100E500038C09C36B1F58DE491E00E945B050E949C
:100E6000B00CF82E8DB79EB708970FB6F8949EBFBA
:100E70000FBE8DBFEDB7FEB731968E010F5F1F4FCE
:100E8000ADB7BEB712961C930E93119785E090E014
:100E90009383828385E591E095838483F68217822C
:100EA0000E946A188DB79EB708960FB6F8949EBF39
:100EB0000FBE8DBFC8010E945B058F2D90E00E9480
:100EC0009B030F900F900F900F900F90CF91DF9199
:100ED0001F910F91FF900895DF92EF92FF920F9371
:100EE0001F93DF93CF93CDB7DEB7E2970FB6F89499
:100EF000DEBF0FBECDBFD82E0E94D8060E94FD02D5
:100F00000E9422037C010E9427032DB73EB72A507E
:100F100030400FB6F8943EBF0FBE2DBFEDB7FEB701
:100F200031968E010F5F1F4FADB7BEB712961C935F
:100F30000E93119722E330E03383228328E531E0DA
:100F400035832483F782E682918780870E946A181E
:100F50002DB73EB7265F3F4F0FB6F8943EBF0FBE8A
:100F60002DBF83E090E063E070E0A80121E00E94E3
:100F7000481083E090E06BE070E04DE451E021E048
:100F80000E9448100E945203AC0183E26BE021E012
:100F90000E947F0A83E090E063E170E048E651E060
:100FA00021E00E9448100E949603AC0183E263E1B5
:100FB00021E00E947F0A0E946D102091E70330918A
:100FC000E8031F9905C080E090E043E7D41611F4D0
:100FD00081E090E0822B932B9093E8038093E703CA
:100FE0008D2D0E94D80680E29EE40197F1F70E94C1
:100FF000A30FE2960FB6F894DEBF0FBECDBFCF9120
:10100000DF911F910F91FF90EF90DF900895CF93A4
:10101000DF938091AB019091AC010E94A40B83E01F
:1010200090E063E070E040E751E021E00E9448106A
:1010300083E090E06BE070E049E751E021E00E943E
:10104000481083E090E062E170E042E851E021E086
:101050000E9448100E946D10C0E2DEE407C00E94AA
:10106000B00C0E94D806CE010197F1F78091E503FC
:101070009091E603892B99F30E94A30FDF91CF9102
:1010800008951F93182F0E944B04812F0E94F30B89
:10109000812F0E94F20A1F9108950F9380E090E043
:1010A00067E270E043E550E027E230E001E00E94B3
:1010B000DF090E946F0C0E94A2030E946B0B0F912C
:1010C00008958091EB039091EC03892B61F40E94C9
:1010D0007E098DE891E00E945B0581E090E09093AD
:1010E000EC038093EB030E94B00C80930D040E94EC
:1010F000D8060E94A30F80910D040E9441088091A0
:101100000D040E944D080E946D108091A9019091DC
:10111000AA01892B99F080916F008E7F80936F00D8
:10112000809181008B7F80938100809181008D7FF1
:1011300080938100809181008E7F06C080916F0036
:10114000816080936F0084E0809381008091E70349
:101150009091E803892B99F080916F008E7F8093A6
:101160006F00809181008B7F80938100809181004E
:101170008D7F80938100809181008E7F06C0809159
:101180006F00816080936F0084E0809381000E94F3
:10119000CD060895E1E6F0E080E8808381E0808379
:1011A0000E948C028FE30E94A1100E94D2100E9424
:1011B00066050E94B00C80930D040E9490068091F9
:1011C0000D040E94D8060E94940B0E9490020E9477
:1011D000B10B0E94BC0A80910D040E940708809107
:1011E0000D040E944D080E9424040E946D10089571
:1011F0000F931F93CF93DF930E94CA0801E010E082
:10120000C0E2DEE438C00E94B00C80930D040E945E
:10121000D80680910D040E944D080E946D108091A7
:10122000A9019091AA01892B71F716C00E94B00CF8
:1012300080930D040E94D80680910D040E946C07D3
:101240008091E9039091EA03892B31F40E947E0991
:101250001093EA030093E9038091E7039091E80378
:10126000892B21F71092EA031092E9030E9461088A
:10127000CE010197F1F78091ED039091EE03892B58
:1012800071F20E947E098EE991E00E945B050E9446
:10129000A30F0E9497068FEF93E00E94A40B80E0BB
:1012A00090E0DF91CF911F910F9108950F931F93BD
:1012B00000D000D000D0EDB7FEB731960EE014E0BC
:1012C000ADB7BEB712961C930E93119784EF91E0C1
:1012D000938382838FEA91E0958384830E946A18C6
:1012E0008DB79EB706960FB6F8949EBF0FBE8DBF02
:1012F000C8010E945B051F910F9108958F929F92E4
:10130000AF92BF92CF92DF92EF92FF920F931F9313
:101310000E9422034C010E9427035C010E94520399
:101320006C010E9496037C010E9457032DB73EB7C3
:101330002A5130400FB6F8943EBF0FBE2DBFEDB717
:10134000FEB731960EE014E0ADB7BEB712961C930F
:101350000E93119724EF31E03383228324E233E0AC
:101360003583248397828682B186A086D386C286FF
:10137000F586E48697878687118A108A138A128AEF
:10138000158A148A178A168A118E108E0E946A187E
:101390002DB73EB7265E3F4F0FB6F8943EBF0FBE47
:1013A0002DBFC8010E945B051F910F91FF90EF9028
:1013B000DF90CF90BF90AF909F908F9008958F92C5
:1013C0009F92AF92BF92CF92DF92EF92FF920F93D4
:1013D000CF93DF936C017B014A0159018417950774
:1013E00061F4EB0106C0C601BE01402F0E94AB0FA5
:1013F0002296AC16BD06BCF70EC06217730759F4EF
:10140000EC0106C0CE01B701402F0E94AB0F22961F
:101410008C169D06BCF7DF91CF910F91FF90EF9056
:10142000DF90CF90BF90AF909F908F9008952F92B4
:101430003F924F925F926F927F928F929F92AF9264
:10144000BF92CF92DF92EF92FF920F931F93DF93A1
:10145000CF9300D000D0CDB7DEB789839A833A010D
:101460001901270148016B01AA24BB2426C0F701FA
:101470004081403219F0C801B60106C04114510440
:1014800029F4C801B60140E20E94AB0F8B819C8118
:1014900001969C838B830F5F1F4F0894E11CF11C06
:1014A000EB81FC81E615F70514F30894A11CB11C2F
:1014B000860C971C0894C11CD11CA214B30444F4DC
:1014C00089819A819C01890174011C821B82E8CF69
:1014D0000F900F900F900F90CF91DF911F910F9170
:1014E000FF90EF90DF90CF90BF90AF909F908F9044
:1014F0007F906F905F904F903F902F900895DF9274
:10150000EF92FF920F931F93F82EE62ED22E8DB7F7
:101510009EB708970FB6F8949EBF0FBE8DBFEDB76C
:10152000FEB731960EE014E0ADB7BEB712961C932D
:101530000E93119784EF91E0938382838EEA93E078
:1015400095838483578346830E946A188DB79EB71C
:1015500008960FB6F8949EBF0FBE8DBF8F2D90E0FA
:101560006E2D70E0A8012D2D0E9448101F910F9143
:10157000FF90EF90DF90089580E090E02EEC3FEF39
:10158000FC01E659F94F11821082FC01EA5FF94F24
:101590003183208302968436910591F70895FC01EA
:1015A000EE0FFF1FE659F94F808191810895FC01EC
:1015B000EE0FFF1FEA5FF94F80819181089582E06D
:1015C00090E008958091B9039091BA03089582E361
:1015D00090E00895FC01EE0FFF1FEA5FF94F718361
:1015E00060830895EF92FF920F931F93CF93DF9341
:1015F000282FE6E0F6E08081918101978193919315
:1016000086E0EA36F807B9F789B1869580FD03C010
:10161000273709F059C00E94BE027B018C016091FE
:1016200002067091030680910406909105062DEC48
:101630003CEC4CE45EE30E9477149B01AC01C801D2
:10164000B7010E942A1688230CF43EC00E94BE02F5
:101650006093020670930306809304069093050638
:10166000C091EF03D091F003CC0FDD1FFE01EA5FC4
:10167000F94F8081918197FF1FC00E94650CC65968
:10168000D94F0296998388830091EF031091F0035C
:101690000E946A0C000F111F0A5F194F0297F80190
:1016A000918380838091EF039091F0030196909352
:1016B000F0038093EF0308C08BEF9FEF918380834B
:1016C0001092F0031092EF03DF91CF911F910F91D1
:1016D000FF90EF900895EF92FF920F931F93CF9397
:1016E000DF93C0E0D0E0DE01A659B94FFE01EA5F0A
:1016F000F94F608171810091B9031091BA038D9106
:101700009C9142E050E022E030E0EE24FF240E9471
:10171000170A2296C436D10531F7DF91CF911F9178
:101720000F91FF90EF90089583E08093BF008FEFBB
:101730008093D10082E88093C0003F9A87E0809335
:10174000C1001092C30008952FEF33E0281B390B1E
:10175000832F992787FD9A958093BF002093CF0010
:101760000895CF93DF93A2EDB6E047E050E0C1E0EB
:10177000D0E026C0CE01022E02C0880F991F0A9425
:10178000E2F780956823F901E354FC4F808190E0F3
:10179000042E02C0959587950A94E2F7817090E037
:1017A000022E02C0880F991F0A94E2F7682B2F5F60
:1017B0003F4F27303105F1F66D934150504021F0F5
:1017C0006C9120E030E0D6CF86E290E09093D10695
:1017D0008093D00688E290E09093CF068093CE0667
:1017E000DF91CF910895282F489902C08436D9F40B
:1017F0008091BB039091BC03892B29F01092BC030C
:101800001092BB030CC08091F3039091F403892BD9
:1018100031F481E090E09093F2038093F103109211
:10182000F4031092F30383B1869580FD02C0213644
:10183000D9F48091F1039091F203892B29F0109251
:10184000F2031092F1030CC08091F3039091F40322
:10185000892B31F481E090E09093BC038093BB032B
:101860001092F4031092F3032091D0063091D10628
:101870002115310529F41092BC031092BB030CC052
:101880008091BB039091BC03892B31F021503040F3
:101890003093D1062093D0062091D0063091D10606
:1018A0002C34310529F41092F2031092F1030895BB
:1018B0008091F1039091F203892B31F02F5F3F4F1C
:1018C0003093D1062093D00608958091D006909150
:1018D000D10608958091CE069091CF060895CF93BA
:1018E000DF9380E060E20E9480106091D006606823
:1018F00080E00E9480108091CE069091CF0667E034
:1019000070E00E949116606480E00E948010C2ED39
:10191000D6E081E069910E94801086E0C93DD80739
:10192000C1F7DF91CF91089581E08093D70080EADD
:101930008093D80082E189BD09B400FEFDCF80E923
:101940008093D8001092E0001092F5031092F603F5
:101950008CE08093E200789408958091F5030895D7
:101960002FB7F8948091F503882369F083E0809382
:10197000E9009BE68091E80085FD09C082FF03C075
:101980009093E800F7CF2FBF2FEF3FEF0CC090915F
:10199000F1008091E80085FD03C08BE68093E800AC
:1019A0002FBF292F30E0C9010895CF93DF93EC01B9
:1019B0008091F503882309F41CC13FB7F89484E0B3
:1019C0008093E9008091F803882309F408C180918D
:1019D000E80085FD02C03FBF0CC11092F803FFC0B4
:1019E0009091E400975E8091E80085FD13C03FBFB1
:1019F0008091E400891721F481E08093F803F9C015
:101A00008091F503882309F4F4C03FB7F894B093AC
:101A1000E900E9CF8091F200242F281B822F90E06B
:101A20006817790708F4262F822F90E081349105FA
:101A300008F0C6C08A5A9F4FFC01EE0FFF1F0590A9
:101A4000F491E02D099489918093F100899180931C
:101A5000F10089918093F10089918093F10089913F
:101A60008093F10089918093F10089918093F10036
:101A700089918093F10089918093F10089918093FD
:101A8000F10089918093F10089918093F10089910F
:101A90008093F10089918093F10089918093F10006
:101AA00089918093F10089918093F10089918093CD
:101AB000F10089918093F10089918093F1008991DF
:101AC0008093F10089918093F10089918093F100D6
:101AD00089918093F10089918093F100899180939D
:101AE000F10089918093F10089918093F1008991AF
:101AF0008093F10089918093F10089918093F100A6
:101B000089918093F10089918093F100899180936C
:101B1000F10089918093F10089918093F10089917E
:101B20008093F10089918093F10089918093F10075
:101B300089918093F10089918093F100899180933C
:101B4000F10089918093F10089918093F10089914E
:101B50008093F10089918093F10089918093F10045
:101B600089918093F10089918093F100899180930C
:101B7000F10089918093F10089918093F10089911E
:101B80008093F10089918093F10089918093F10015
:101B900089918093F10089918093F10089918093DC
:101BA000F10089918093F10089918093F1008991EE
:101BB0008093F10089918093F10089918093F100E5
:101BC00089918093F1008091E80085FD02C05093D7
:101BD000E800621B7109A093F7033FBF04C0B4E0A3
:101BE00040E45AE3A5E06115710509F0F9CE80E003
:101BF00001C08FEFDF91CF9108951F920F920FB622
:101C00000F9211248F939F938091E1001092E10035
:101C1000982F83FF11C01092E90081E08093EB00C0
:101C20001092EC0082E18093ED0088E08093F00058
:101C30001092F5031092F60392FF13C08091F50302
:101C4000882379F08091F703882359F0815080939D
:101C5000F703882331F484E08093E9008AE38093DA
:101C6000E8009F918F910F900FBE0F901F901895D5
:101C70001F920F920FB60F9211240F931F932F9361
:101C80003F934F935F936F937F938F939F93AF9304
:101C9000BF93EF93FF931092E9008091E80083FFD8
:101CA0003CC14091F1003091F1008091F100682F2A
:101CB00070E02091F100922F80E0682B792B8091C9
:101CC000F100A82FB0E02091F100922F80E0A82B26
:101CD000B92B1091F1000091F10082EF8093E800A0
:101CE000363009F05AC025E331E0A9014550504093
:101CF000F9013797859194918617970701F5FA01B5
:101D0000859194918A179B07D1F49A012E5F3F4FDA
:101D1000F901659174912E5F3F4FF9014491212F94
:101D200030E0902F80E0282B392B2F3F310519F020
:101D300010F02FEF30E0241758F4422F09C0295F2C
:101D40003F4F495F5F4FF1E02F353F0789F6E5C010
:101D50005EEF8091E800282F30E0C9018570907017
:101D6000892BB9F322FDDCC0342F413108F030E17A
:101D7000232FCB0106C0FC010196E491E093F10012
:101D800021502223C1F7630F711D431B5093E800BC
:101D90004423F9F63031E9F2C3C0353061F48EEFF7
:101DA0008093E8008091E80080FFFCCF862F806858
:101DB0008093E300B5C0393051F5442309F0ADC03C
:101DC0006093F5031092F6031092F7038EEF809361
:101DD000E80088E591E021E02093E900FC0101960C
:101DE000E491E093EB00EE2369F0AC014F5F5F4FAD
:101DF000FC0184918093EC00CA010196FA013491B0
:101E00003093ED002F5F253039F78EE181C03830F7
:101E100061F4403809F081C08091E80080FFFCCF78
:101E20008091F5038093F10050C0313289F4413A3A
:101E300009F073C08091E80080FFFCCFE4ECF3E090
:101E400081918093F10083E0EB3CF807C9F73DC036
:101E50003032A1F4413209F060C08091E80082FF85
:101E6000FCCFE4ECF3E08091F100819383E0EB3C64
:101E7000F807C9F78BEF8093E80027C0323251F49E
:101E8000413209F04AC06093F6038091E80080FF78
:101E9000FCCF1BC03323E9F48091E80080FFFCCF26
:101EA000423811F080E00DC0A093E9008091EB0072
:101EB00090E025E0969587952A95E1F7817010923C
:101EC000E9008093F1001092F1008EEF8093E8001A
:101ED00027C0313011F0333001F54230F1F4672B77
:101EE000E1F42A2F2F77822F81508430B0F48EEFC7
:101EF0008093E8002093E900333079F089E1809302
:101F0000EB0081E090E002C0880F991F2A95E2F76C
:101F10008093EA001092EA0003C081E28093EB0014
:101F2000FF91EF91BF91AF919F918F917F916F91B1
:101F30005F914F913F912F911F910F910F900FBE85
:101F40000F901F901895E9EDF6E0119288E0E13DC1
:101F5000F807D9F708959C0197FD37C077FD35C084
:101F60008435910594F5603371057CF5CB0173E000
:101F7000959587957A95E1F76770452B99F0E4E59B
:101F80008E9FF0011124E20FF31FE752F94F81E019
:101F900090E002C0880F991F6A95E2F72081282BF4
:101FA00020830895E4E58E9FF0011124E20FF31FD2
:101FB000E752F94F81E090E002C0880F991F6A95BF
:101FC000E2F7809520812823208308954F925F9225
:101FD0006F927F928F929F92AF92BF92CF92DF9239
:101FE000EF92FF920F931F93CF93DF933B01490131
:101FF00025E0429FA0011124A7E5EA2EA1E0FA2ED8
:10200000E40EF51E8C01F1E04F2E512CECE5AE2EC6
:10201000E1E0BE2EA40EB51EF70184918114910457
:1020200009F48095C0E0D0E0C82EDD24BE01660D25
:10203000771DA2010C2E02C0440F551F0A94E2F72F
:102040004C215D210C2E02C0559547950A94E2F76C
:10205000C8010E94AB0F2196C830D10539F708940A
:10206000E11CF11C0F5F1F4FEA14FB04A9F6DF917E
:10207000CF911F910F91FF90EF90DF90CF90BF9085
:10208000AF909F908F907F906F905F904F9008954A
:10209000CF92DF92EF92FF920F931F93CF93DF9334
:1020A0006B017A01E901082F10E008C0802F90E051
:1020B000B6019E010E94E60F0B5F1F5FF701E10F63
:1020C000F11D4081442391F7DF91CF911F910F9132
:1020D000FF90EF90DF90CF900895CF93DF9380E053
:1020E00060E00E94E210C9EDD6E081E069910E94B3
:1020F000801088E0C13DD807C1F7DF91CF910895E6
:1021000095B18295880F807E9F7D982B95B95F98B9
:1021100027E030E070E08F98CB01022E02C0959549
:1021200087950A94E2F780FF02C02E9A01C02E988C
:102130008F9A215030408FEF2F3F380761F75F9A19
:1021400008951F93182F579A249A259A269A879AAA
:102150002C985F9A2C9A80E061E20E9480101068AF
:1021600080E0612F0E94801080E064E00E94801077
:1021700080E063E10E94801080E06CE00E948010AB
:1021800080E060E20E94801080E06CE00E9480109D
:1021900080E060E40E94801080E060E80E9480108F
:1021A0001F910895CF93DF93C0E0D0E081E060E01D
:1021B0000E948010219681E0C83FD807B9F7DF91CF
:1021C000CF9108951F93182F606480E00E948010C3
:1021D000106880E0612F0E9480101F910895A1E196
:1021E000B0E0E5EFF0E10C94A4163C017F876E8728
:1021F0006A01FC0117821682838181FD03C06FEFA3
:102200007FEF6FC39E012F5F3F4F398B288BF30108
:102210002381EE85FF8523FD859123FF8191FF8733
:10222000EE87882309F45AC3853251F4EE85FF8581
:1022300023FD859123FF8191FF87EE87853229F465
:1022400090E0B3010E943E18E2CF982F10E088245E
:1022500099241032B0F49B3269F09C3228F4903209
:1022600051F0933271F40BC09D3239F0903349F440
:10227000116028C01260146025C0186023C010616E
:1022800021C017FD2AC0892F80538A3078F416FFA9
:1022900006C0FAE09F9E902C1124980E13C03AE0DD
:1022A000839E802C1124880E10620CC09E3221F473
:1022B00016FD14C3106406C09C3611F4106802C0E9
:1022C000983659F4EE85FF8523FD959123FF919172
:1022D000FF87EE87992309F0BCCF892F855483307F
:1022E00020F4812F8061905E07C0892F855683304E
:1022F00008F09FC1812F8F7E86FD02C076E0972E69
:102300006FE3F62EF822953619F4F0E4FF2A07C0A1
:10231000963619F420E8F22A02C091109A94F7FE3A
:102320000AC03BE3391518F45CE3B52E02C0B92CA2
:10233000B39427E009C047E0491520F4BB2447E0E7
:10234000942EF7CF292DBB24C60104969D878C8738
:10235000F6016081718182819381AE014F5F5F4F91
:102360000B2D0E9450176C010981202E332400FF91
:1023700004C003FD02C01DE209C0F1FE02C01BE261
:1023800005C0F2FC02C010E001C010E2C1018C7077
:102390009070892BB9F1112311F483E001C084E01E
:1023A000881510F088240AC0881AF3FC07C080E260
:1023B00090E0B3010E943E188A94C9F7112329F0D6
:1023C000812F90E0B3010E943E1823FE03C007ED69
:1023D00013E00EC00BED13E00BC0E114F10409F0A3
:1023E000805290E0B3010E943E180F5F1F4F05C05E
:1023F000EF2CFF24F0E1EF22FF24F80184918823E1
:1024000061F714C1F7FE12C0BC0C24FE04C08A811F
:10241000813309F4BA941B141CF0BB24B3942DC06F
:10242000F8E0FB1550F538E0B32E27C0F6FC25C0C8
:10243000892D90E08C159D054CF02CEFC2162FEFE6
:10244000D20624F030E8F32A01C09A94992049F08A
:10245000E2E0F0E0EC0FFD1FE90DF11D808180331B
:10246000A1F3F7FE0AC0B92CB394892D90E0C816E9
:10247000D90614F0992401C09C18F7FC03C025E08C
:1024800030E009C01C141D041CF021E030E003C042
:1024900096012F5F3F4F112311F02F5F3F4F99207F
:1024A00029F0892D90E00196280F391F882D90E0A2
:1024B0002817390714F0882401C0821A4F2C55249C
:1024C000C20189709070892B39F008C080E290E0D9
:1024D000B3010E943E188A948820C1F7112329F085
:1024E000812F90E0B3010E943E1843FE07C008C050
:1024F00080E390E0B3010E943E188A948820C1F7DF
:10250000F7FE46C08601D7FE02C000E010E076016B
:102510000894E11CF11CE01AF10A41E050E04C0F74
:102520005D1FE40EF51E26014B185108892D90E021
:10253000AA24BB24A81AB90A5FEF0F3F150729F494
:102540008EE290E0B3010E943E18C016D10634F02E
:10255000401651061CF4F701808101C080E3015050
:1025600010400894E11CF11C0A151B052CF090E0AA
:10257000B3010E943E18E0CF0C151D0539F49A8175
:10258000963318F4953311F424FE81E390E04BC0A8
:102590008A81813309F00F7E90E0B3010E943E18DA
:1025A0009920A1F08EE290E0B3010E943E1812E063
:1025B000E1E0F0E0EC0FFD1FE10FF11D1F5F8081F6
:1025C00090E0B3010E943E189A9491F744FC03C036
:1025D00085E690E002C085E490E0B3010E943E18D9
:1025E000D7FC05C0C114D10441F404FF06C0D09447
:1025F000C194D108D3948DE201C08BE290E0B30185
:102600000E943E1880E305C08F5F26EF3FEFC20EA9
:10261000D31E3AE0C316D104BCF790E0B3010E9488
:102620003E18C601C096B3010E943E18CC84DD84DA
:1026300052C1933631F0933799F0933509F059C070
:1026400023C0F601808189835E010894A11CB11C1E
:1026500022E030E0C20ED31E21E0E22EF12C12C0A7
:10266000F601A080B18016FD03C06FEF7FEF02C0BE
:10267000692D70E022E030E0C20ED31EC5010E9439
:1026800033187C011F7713C0F601A080B18016FDBE
:1026900003C06FEF7FEF02C0692D70E022E030E0F1
:1026A000C20ED31EC5010E9428187C01106813FFBA
:1026B00007C01BC080E290E0B3010E943E188A94DC
:1026C000882D90E0E816F906A8F30FC0F50117FD74
:1026D000859117FF81915F0190E0B3010E943E1840
:1026E00081108A940894E108F108E114F10471F76B
:1026F000F2C0943611F0993689F517FF08C0F6013B
:10270000208131814281538184E090E00AC0F6014A
:10271000808191819C01442737FD4095542F82E0B0
:1027200090E0C80ED91E9FE6F92EF12257FF09C08E
:1027300050954095309521953F4F4F4F5F4F90E812
:10274000F92ACA01B901AE014F5F5F4F2AE030E0BC
:102750000E949B18E82EE889EE1A41C0953721F4B3
:102760001F7E2AE030E01CC0197F9F3661F0903751
:1027700020F4983509F0B2C00FC0903739F098377F
:1027800009F0ACC004C028E030E00AC0106114FDBC
:10279000146020E130E004C014FD166020E132E056
:1027A00017FF08C0F601608171818281938144E046
:1027B00050E008C0F60180819181BC0180E090E08A
:1027C00042E050E0C40ED51EAE014F5F5F4F0E9445
:1027D0009B18E82E5889E51A8FE7F82EF122F6FEAD
:1027E0000BC08EEFF822E91438F4F4FE07C0F2FCB7
:1027F00005C09FEEF92202C01E2D01C0192DF4FE66
:102800000DC0FE01EE0DF11D8081803319F4E9EE5B
:10281000FE2208C01F5FF2FE05C003C08F2D867820
:1028200009F01F5F0F2DF3FC14C0F0FE0FC0181548
:1028300010F09E2C0BC09E2C980C911A182D06C0DF
:1028400080E290E0B3010E943E181F5F1815C0F3AC
:1028500004C0181510F4811A01C0882404FF0FC0A9
:1028600080E390E0B3010E943E1802FF1DC001FD0D
:1028700003C088E790E00EC088E590E00BC0802F91
:10288000867891F001FF02C08BE201C080E2F7FC84
:102890008DE290E0B3010E943E1806C080E390E014
:1028A000B3010E943E189A94E914C0F3EA94E1E05F
:1028B000F0E0EC0FFD1FEE0DF11D808190E0B30103
:1028C0000E943E18EE2091F706C080E290E0B3012E
:1028D0000E943E188A948820C1F799CCF301668142
:1028E0007781CB016196E2E10C94C0165058BB276A
:1028F000AA270ED075C166D130F06BD120F031F42B
:102900009F3F11F41EF45BC10EF4E095E7FB51C14B
:10291000E92F77D180F3BA17620773078407950709
:1029200018F071F49EF58FC10EF4E0950B2EBA2FBE
:10293000A02D0B01B90190010C01CA01A0011124C5
:10294000FF27591B99F0593F50F4503E68F11A1671
:10295000F040A22F232F342F4427585FF3CF469502
:1029600037952795A795F0405395C9F77EF41F1624
:10297000BA0B620B730B840BBAF09150A1F0FF0FEE
:10298000BB1F661F771F881FC2F70EC0BA0F621FDA
:10299000731F841F48F4879577956795B795F795CA
:1029A0009E3F08F0B3CF9395880F08F09927EE0F5C
:1029B000979587950895D9D008F481E008950CD0B3
:1029C0000FC107D140F0FED030F021F45F3F19F085
:1029D000F0C0511139C1F3C014D198F39923C9F350
:1029E0005523B1F3951B550BBB27AA276217730715
:1029F000840738F09F5F5F4F220F331F441FAA1FC9
:102A0000A9F333D00E2E3AF0E0E830D09150504088
:102A1000E695001CCAF729D0FE2F27D0660F771F36
:102A2000881FBB1F261737074807AB07B0E809F018
:102A3000BB0B802DBF01FF2793585F4F2AF09E3FAD
:102A4000510568F0B6C000C15F3FECF3983EDCF37F
:102A5000869577956795B795F7959F5FC9F7880F26
:102A6000911D9695879597F90895E1E0660F771F78
:102A7000881FBB1F621773078407BA0720F0621B09
:102A8000730B840BBA0BEE1F88F7E095089504D002
:102A90006894B111D9C00895BCD088F09F5790F0C8
:102AA000B92F9927B751A0F0D1F0660F771F881F73
:102AB000991F1AF0BA95C9F712C0B13081F0C3D08E
:102AC000B1E00895C0C0672F782F8827B85F39F02C
:102AD000B93FCCF3869577956795B395D9F73EF4D2
:102AE00090958095709561957F4F8F4F9F4F08957A
:102AF000E89409C097FB3EF4909580957095619598
:102B00007F4F8F4F9F4F9923A9F0F92F96E9BB274D
:102B10009395F695879577956795B795F111F8CFC9
:102B2000FAF4BB0F11F460FF1BC06F5F7F4F8F4F34
:102B30009F4F16C0882311F096E911C0772321F02A
:102B40009EE8872F762F05C0662371F096E8862FC2
:102B500070E060E02AF09A95660F771F881FDAF719
:102B6000880F9695879597F90895990F0008550F46
:102B7000AA0BE0E8FEEF16161706E807F907C0F003
:102B800012161306E407F50798F0621B730B840B0B
:102B9000950B39F40A2661F0232B242B252B21F4E5
:102BA00008950A2609F4A140A6958FEF811D811D85
:102BB000089597F99F6780E870E060E008959FEFBF
:102BC00080EC089500240A941616170618060906C4
:102BD000089500240A941216130614060506089593
:102BE000092E0394000C11F4882352F0BB0F40F41B
:102BF000BF2B11F460FF04C06F5F7F4F8F4F9F4F5B
:102C0000089557FD9058440F551F59F05F3F71F0DC
:102C10004795880F97FB991F61F09F3F79F0879543
:102C20000895121613061406551FF2CF4695F1DFCC
:102C300008C0161617061806991FF1CF869571055C
:102C4000610508940895E894BB2766277727CB0190
:102C500097F908958ADF08F48FEF08950BD0C0CF5D
:102C6000B1DF28F0B6DF18F0952309F0A2CFA7CF87
:102C70001124EACFC6DFA0F3959FD1F3950F50E062
:102C8000551F629FF001729FBB27F00DB11D639F1E
:102C9000AA27F00DB11DAA1F649F6627B00DA11DC4
:102CA000661F829F2227B00DA11D621F739FB00D6A
:102CB000A11D621F839FA00D611D221F749F3327DA
:102CC000A00D611D231F849F600D211D822F762F73
:102CD0006A2F11249F5750408AF0E1F088234AF070
:102CE000EE0FFF1FBB1F661F771F881F91505040BC
:102CF000A9F79E3F510570F05CCFA6CF5F3FECF384
:102D0000983EDCF3869577956795B795F795E795A7
:102D10009F5FC1F7FE2B880F911D9695879597F9B8
:102D2000089597FB092E07260AD077FD04D043D0DB
:102D300006D000201AF4709561957F4F0895F6F73C
:102D4000909581959F4F08952F923F924F925F9259
:102D50006F927F928F929F92AF92BF92CF92DF92AB
:102D6000EF92FF920F931F93CF93DF93CDB7DEB710
:102D7000CA1BDB0B0FB6F894DEBF0FBECDBF0994A4
:102D80002A88398848885F846E847D848C849B84FB
:102D9000AA84B984C884DF80EE80FD800C811B8109
:102DA000AA81B981CE0FD11D0FB6F894DEBF0FBE38
:102DB000CDBFED010895AA1BBB1B51E107C0AA1F9F
:102DC000BB1FA617B70710F0A61BB70B881F991FCC
:102DD0005A95A9F780959095BC01CD010895A0E082
:102DE000B0E0E5EFF6E10C94AC16EC01A880B980F8
:102DF000CA80DB80A114B104C104D10441F484E28F
:102E0000A82E89EDB82E8BE5C82E87E0D82EC601F6
:102E1000B5012DE133EF41E050E00E94181927EA97
:102E200031E440E050E00E94F9187B018C01C601BA
:102E3000B5012DE133EF41E050E00E941819CA01BD
:102E4000B9012CEE34EF4FEF5FEF0E94F9186E0DD1
:102E50007F1D801F911F97FF04C06150704080400C
:102E60009048688379838A839B839B013F77C9015C
:102E7000CDB7DEB7EAE00C94C8160E94EF160895AD
:102E80008BEC93E00E94EF160895A0E0B0E08093F1
:102E9000CB039093CC03A093CD03B093CE030895BE
:102EA000283008F027E03327DA01990F311D87FD1C
:102EB000916000966105710539F432602E5F3D9393
:102EC00030E32A95E1F708959F3F30F0803871058F
:102ED000610509F03C5F3C5F3D93913008F08068EC
:102EE000911DDF93CF931F930F93FF92EF92192FB2
:102EF000987F9695E92F96959695E90FFF27E75CC1
:102F0000FB4F99273327EE24FF24A701E701059003
:102F10000894079428F4360FE71EF81E491F511D28
:102F2000660F771F881F991F0694A1F705900794D5
:102F300028F4E70EF81E491F561FC11D770F881F82
:102F4000991F661F0694A1F70590079428F4F80EC0
:102F5000491F561FC71FD11D880F991F661F771F56
:102F60000694A1F70590079420F4490F561FC71F38
:102F7000D81F990F661F771F881F0694A9F78491A1
:102F80001095177041F0D695C79557954795F794CA
:102F9000E7941A95C1F7EFEDF3E068941590159159
:102FA00035916591959105907FE27395E118F10A4D
:102FB000430B560BC90BD009C0F7E10CF11E431FA0
:102FC000561FC91FD01D7EF4703311F48A95E6CFC9
:102FD000E894015030F0080F0AF40027021708F4B3
:102FE000202F2395022F7A3328F079E37D932A95B9
:102FF000E9F710C07D932A9589F606949795679511
:10300000379517951794E118F10A430B560BC90B26
:10301000D00998F023957E9173957A3308F070E388
:103020007C932013B8F77E9170617D9330F0839587
:1030300071E37D9370E32A95E1F71124EF90FF90FF
:103040000F911F91CF91DF91992787FD909508955A
:10305000FC010590615070400110D8F78095909563
:103060008E0F9F1F0895FC01615070400190011068
:10307000D8F7809590958E0F9F1F08950F931F93FB
:10308000CF93DF938C01EB018B8181FF1BC082FF0B
:103090000DC02E813F818C819D812817390764F4F2
:1030A000E881F9810193F983E88306C0E885F98511
:1030B000802F0995892B31F48E819F8101969F8302
:1030C0008E8302C00FEF1FEFC801DF91CF911F91D8
:1030D0000F910895AEE0B0E0E0E7F8E10C94B2168D
:1030E0000D891E898F89988D97FF02C080E090E836
:1030F00001979E838D831A83098386E08C839E01CA
:10310000255E3F4FCE010196698D7A8DA9010E94FF
:10311000EF104D815E8157FD0AC02F81388542171F
:1031200053070CF49A01020F131FF80110822E9618
:10313000E4E00C94CE16FA01AA27283051F1203190
:1031400081F1E8946F936E7F6E5F7F4F8F4F9F4F3B
:10315000AF4FB1E03ED0B4E03CD0670F781F891F7D
:103160009A1FA11D680F791F8A1F911DA11D6A0F4B
:10317000711D811D911DA11D20D009F468943F91FE
:103180002AE0269F11243019305D3193DEF6CF01FD
:103190000895462F4770405D4193B3E00FD0C9F7C3
:1031A000F6CF462F4F70405D4A3318F0495D31FD30
:1031B0004052419302D0A9F7EACFB4E0A695979583
:1031C000879577956795BA95C9F700976105710559
:1031D00008959B01AC010A2E0694579547953795A3
:1031E0002795BA95C9F7620F731F841F951FA01DFD
:1031F0000895629FD001739FF001829FE00DF11D41
:10320000649FE00DF11D929FF00D839FF00D749F60
:10321000F00D659FF00D9927729FB00DE11DF91F0C
:10322000639FB00DE11DF91FBD01CF011124089569
:1032300097FB092E05260ED057FD04D014D00AD0D6
:10324000001C38F450954095309521953F4F4F4FD5
:103250005F4F0895F6F790958095709561957F4F33
:103260008F4F9F4F0895A1E21A2EAA1BBB1BFD0191
:103270000DC0AA1FBB1FEE1FFF1FA217B307E40755
:10328000F50720F0A21BB30BE40BF50B661F771FAD
:10329000881F991F1A9469F760957095809590958D
:0E32A0009B01AC01BD01CF010895F894FFCF52
:1032AE0005000000E0C00000E0C00000E0C02020EB
:1032BE0020232020202020232323202020232323EB
:1032CE0023232023232323232323202323232323C6
:1032DE0020202023232320202020202320202000F4
:1032EE000E0147414D45204F56455221004C6976FF
:1032FE0065733A200025630054696D653A202530C8
:10330E0032643A253032640053636F72653A20009E
:10331E006E393733373931370041737465726F69DF
:10332E00640041706F63616C797073650047616D05
:10333E00652073746172746564210A0A0D00476119
:10334E006D65206F766572210001002003FF034337
:10335E006F6E74726F6C733A0A0D276127203F20CF
:10336E006D6F766520737061636573686970206C2C
:10337E006566740A0D276427203F206D6F766520E1
:10338E007370616365736869702072696768740A27
:10339E000D277727203F206669726520706C617358
:1033AE006D6120626F6C74730A0D277327203F20A6
:1033BE0073656E642F646973706C617920737461C8
:1033CE007475730A0D277227203F2073746172740F
:1033DE002F72657365740A0D277027203F20706168
:1033EE007573650A0D277127203F20717569740A60
:1033FE000D277427203F207365742061696D202886
:10340E002D363020746F203630290A0D276D272077
:10341E003F207365742073706565642028302074B6
:10342E006F203130290A0D276C27203F20736574D9
:10343E00206C6966650A0D276727203F2073657427
:10344E002073636F72650A0D273F27203F2070722D
:10345E00696E7420636F6E74726F6C730A0D2768D9
:10346E0027203F2073706163657368697020746FE5
:10347E0020636F6F72640A0D276A27203F206173E5
:10348E007465726F696420746F20636F6F72640A63
:10349E000D276B27203F20626F756C646572207458
:1034AE006F20636F6F72640A0D276927203F2066B5
:1034BE007261676D656E7420746F20636F6F7264D6
:1034CE000A0A0D0054696D653A20253032643A259A
:1034DE003032640A0D4C697665733A2025640A0D04
:1034EE0053636F72653A2025640A0D4173746572D9
:1034FE006F6964733A2025640A0D426F756C6465BA
:10350E0072733A2025640A0D467261676D656E749A
:10351E00733A2025640A0D506C61736D6120626FE1
:10352E006C74733A2025640A0D547572726574209A
:10353E0061696D3A2025640A0D5370656564206FCC
:10354E00662067616D653A2025640A0A0D002564C0
:10355E00002566002323232300B40301001010105E
:10356E00107CFEAA00E1000000000801000000002F
:00000001FF